:0200000480007A
:1000000073700430735040309711001093818185D4
:1000100017010110130101FF970200009382822E45
:100020007390523073F0533073F0023217050000B2
:100030001305050A97050000938585096300B5023D
:10004000174600001306068763FAC50083220500E1
:1000500023A0550011059105E3EAC5FE17450000F0
:1000600013054585970500109385C5F917060010FF
:100070001306460063FAC5008322050023A055003D
:1000800011059105E3EAC5FE17050010130585FE6D
:1000900097250010938505DB6377B50023200500C5
:1000A0001105E36DB5FE1D2D17150000130505673D
:1000B000EF10E065EF10E069EF00F01A01458145AF
:0A00C000EF10A006EF00502C01A085
:10010000011122CE00102326A4FE9727001093870A
:1001100027D3254798C3FD573E85724405618280E9
:10012000011122CE00102326A4FE2324B4FE0327AF
:10013000C4FE85476307F7000327C4FE8947631899
:10014000F700832784FE0967D8C3814701A8972752
:1001500000109387E7CE254798C3FD573E8572442C
:1001600005618280011122CE00102326A4FE85475E
:100170003E85724405618280011122CE0010232643
:10018000A4FE2324B4FE2322C4FE81473E8572448C
:1001900005618280797106D622D40018232EA4FC32
:1001A000232CB4FC232AC4FC8327C4FD99C3FD5728
:1001B00039A8832784FD2326F4FE37350110152640
:1001C000AA873E878327C4FE2380E70085473E85B4
:1001D000B250225445618280011122CE00102326A4
:1001E000A4FE970700109387E7E798438327C4FE90
:1001F0003E97972700109387E7C46360F70297073D
:100200000010938727E698438327C4FE3E9797F70D
:1002100000109387275F63F4E700FD5705A8970751
:100220000010938727E498438327C4FE3E979707DF
:100230000010938727E398C397070010938787E2FE
:1002400098438327C4FEB307F040BA973E857244B3
:1002500005618280797106D622D40018232EA4FC71
:10026000232CB4FC232AC4FC0325C4FDEF10701A10
:10027000AA8799E3FD57B1A8832784FD2324F4FEC0
:10028000232604FE3DA8032784FE8327C4FEBA97D5
:1002900003C70700A9476316F700B54537350110B6
:1002A0000124032784FE8327C4FEBA9783C707006F
:1002B000BE8537350110ED228327C4FE850723262E
:1002C000F4FE0327C4FE832744FDE36EF7FA832779
:1002D00044FD3E85B25022544561828000000000FA
:1002E000000000000000000000000000000000000E
:1002F00000000000000000000000000000000000FE
:100300005D7106C012C216C41AC61EC82ACA2ECCF7
:1003100032CE36D03AD23ED442DC46DEF2C0F6C20D
:10032000FAC4FEC6F322103416D8F322203416D6AF
:10033000732520348A85352BC25273901234B25201
:100340007390223482401242A2423243C243524549
:10035000E245724682561257A2576258F258064E2C
:10036000964E264FB64F61617300203000000000AA
:10037000000000000000000000000000011122CE7B
:1003800000102326A4FE2324B4FE2322C4FE8327C8
:10039000C4FE93B7170093F7F70F99C3FD5751A801
:1003A000032744FE89476301F706032744FE894774
:1003B00063EFE706832744FE99C7032744FE85477A
:1003C000630FF700ADA08327C4FE985F832784FEE8
:1003D00093C7F7FF7D8F8327C4FE98DF91A88327FB
:1003E000C4FED85F832784FE93C7F7FF7D8F8327E2
:1003F000C4FED8DF8327C4FE985F832784FE5D8F09
:100400008327C4FE98DF2DA08327C4FED85F8327EF
:1004100084FE5D8F8327C4FED8DF8327C4FE985FE8
:10042000832784FE5D8F8327C4FE98DF11A001001F
:1004300081473E85724405618280011122CE001001
:100440002326A4FE2324B4FE8327C4FE93B71700FB
:1004500093F7F70F99C3FD5781A097070010938773
:10046000A7C09843832784FEB357F7021387F7FF8B
:100470008327C4FE98CF8327C4FE9C4713E7170049
:100480008327C4FE98C78327C4FEDC4713E7170001
:100490008327C4FED8C781473E85724405618280A8
:1004A000011122CE00102326A4FEAE87A305F4FE80
:1004B0008327C4FE93B7170093F7F70F99C3FD572F
:1004C00029A801008327C4FE9C43E3CD07FE034710
:1004D000B4FE8327C4FE98C381473E8572440561FC
:1004E0008280797122D60018232EA4FC8327C4FDB4
:1004F00093B7170093F7F70F81C79307F00F31A851
:100500008327C4FDDC432326F4FE8327C4FEE3C90E
:1005100007FE8327C4FE93F7F70F3E8532544561EB
:100520008280411122C60008A1673E853244410104
:100530008280397106DE22DC26DA80002326A4FCC4
:10054000CD372326A4FE37070002B167BA9703A769
:1005500087FF83A7C7FF2324E4FE37070002B167A4
:10056000BA9703A787FF83A7C7FF2322E4FEF327D9
:1005700000B0BE84A6872320F4FE032744FE832711
:1005800084FEE30CF7FC37070002B167BA9703A7B4
:1005900087FF83A7C7FF832744FEB307F740232EB7
:1005A000F4FCF32700B0BE842687832704FEB3073C
:1005B000F740232CF4FC0327C4FD8327C4FCE36429
:1005C000F7FC032784FD8327C4FD3357F7028327F5
:1005D000C4FE3307F702832684FD8327C4FDB3F6E8
:1005E000F6028327C4FEB386F6028327C4FDB3D781
:1005F000F602BA973E85F2506254D254216182804D
:10060000011106CE22CC0010054525371305400602
:100610000D372326A4FE8327C4FE3E85F2406244A4
:1006200005618280397106DE22DC80002326A4FC6D
:100630008327C4FC3E868146935716019398F600A3
:10064000B3E817011318F6001306803E8146428571
:10065000C685EF0090552A87AE872324E4FE232623
:10066000F4FE37070002B167BA9703A787FF83A795
:10067000C7FF2320E4FE2322F4FE37070002B16700
:10068000BA9703A887FF83A8C7FF032504FE832525
:1006900044FE3306A840B287B337F800B386B840AB
:1006A000B387F640BE86232CC4FC232ED4FC03273C
:1006B000C4FE8327C4FDE3E2E7FC0327C4FE8327CF
:1006C000C4FD6318F700032784FE832784FDE3E657
:1006D000E7FA0100F250625421618280411122C682
:1006E0000008970700109387279837B7C4041307AB
:1006F000074098C30100324441018280011106CEB7
:1007000022CC00102326A4FE2324B4FE17250000CB
:100710001305454AEF10604C8325C4FE17250000E1
:100720001305854AEF10203AF3271034BE808687E0
:10073000BE85172500001305254AEF10C038F327A2
:100740003034BE808687BE85172500001305C54955
:10075000EF10603701A0011106CE22CC0010232635
:10076000A4FE2324B4FE172500001305E548EF106E
:10077000C0468325C4FE172500001305E544EF108D
:100780008034F3271034BE808687BE85172500008D
:1007900013058544EF102033F3273034BE8086875D
:1007A000BE851725000013052544EF10C031010058
:1007B000F240624405618280011122CE001023269E
:1007C00004FE1DA017070000130787F3970600100B
:1007D0009386068B8327C4FE8A07B69798C3832720
:1007E000C4FE85072326F4FE0327C4FEA947E3DBE6
:1007F000E7FC01000100724405618280011122CEF4
:100800000010232604FE1DA0170700001307E7F4BD
:1008100097060010938686898327C4FE8A07B697B9
:1008200098C38327C4FE85072326F4FE0327C4FE4E
:1008300093074003E3DAE7FC232604FE0DA0170725
:100840000000130787F19386C1918327C4FE8A07AE
:10085000B69798C38327C4FE85072326F4FE032793
:10086000C4FEA547E3DDE7FC010001007244056119
:100870008280397106DE22DC26DA80002326A4FC81
:100880002324B4FC8327C4FC63DF070C232604FE67
:100890000327C4FC8567FD17F98F2324F4FE032783
:1008A00084FEAD47631CF708F32740F1BE84A6879A
:1008B0002322F4FE832744FE1397C700B707200CBA
:1008C0009107BA972320F4FE832704FE9C43232438
:1008D000F4FE032784FE9307400363E4E70817F759
:1008E000FF0F1307A77C832784FE8A07BA979C43D0
:1008F0002326F4FE8327C4FE81CB8327C4FE8325F1
:1009000084FC0325C4FC8297832784FE232EF4FCF9
:10091000F32740F1BE84A687232CF4FC832784FDB3
:100920001397C700B707200C9107BA97232AF4FC46
:10093000832744FD0327C4FD98C325A01387C191D5
:10094000832784FE8A07BA979C432326F4FE8327D5
:10095000C4FE81CB8327C4FE832584FC0325C4FC0D
:100960008297814739A0832584FC0325C4FC012894
:10097000AA873E85F2506254D254216182807971F7
:1009800006D622D40018232EA4FC232CB4FC032763
:10099000C4FD8567FD17F98F2324F4FE032784FE29
:1009A000A94763EEE70017F7FF0F1307676D83276B
:1009B00084FE8A07BA979C432326F4FE39A0970742
:1009C00000009387E7D32326F4FE8327C4FE81CB60
:1009D0008327C4FE832584FD0325C4FD82978147B8
:1009E0003E85B250225445618280011106CE22CC50
:1009F000001097270000938767212322F4FE972792
:100A00000000938767212324F4FE97270000938733
:100A100027212326F4FE172600001306A62097257B
:100A200000009385E5201725000013052521EF1010
:100A300080098327C4FEBE85172500001305852283
:100A4000EF10600897F7FF0F938707629C43BE85FE
:100A50001725000013054522EF10E0060100F240C3
:100A6000624405618280397106DE22DC26DA80006C
:100A7000413E2A8797F7FF0F9387075F98C3054684
:100A8000B705030037250110D538F1679385072096
:100A9000373501105D32913F05338D339307500395
:100AA0002326F4FE232404FE61A8832784FE232248
:100AB000F4FEF32740F1BE84A6872320F4FE8327AB
:100AC00004FE13977700832744FE95838A073E9799
:100AD000B727000CBA97232EF4FC8327C4FD9C4350
:100AE000232CF4FC832744FEFD8B0547B317F70046
:100AF00093C7F7FF3E87832784FDF98F232CF4FCEF
:100B00008327C4FD032784FD98C30100832784FE47
:100B1000232AF4FC232804FC832744FD1397270091
:100B2000B707000CBA972326F4FC8327C4FC0327DD
:100B300004FD98C30100832784FE85072324F4FE67
:100B40000327C4FE832784FEE3E1E7F6232404FCA5
:100B5000F32740F1BE84A6872322F4FC832744FCBC
:100B60001397C700B707200CBA972320F4FC8327FC
:100B700004FC032784FC98C3010001000100F2502B
:100B80006254D25421618280011122CE00102326AA
:100B9000A4FE0100724405618280411122C6000852
:100BA0000100324441018280411122C60008010047
:100BB000324441018280411106C622C40008172533
:100BC00000001305E50CEF1040010100B240224483
:100BD00041018280317106DF22DD80012326A4F4E9
:100BE0002324B4F42322C4F4832784F413D7F741D5
:100BF0007D8BBA979587232EF4FC930744F5130752
:100C000000083A8681453E85EF00D048232C04FC3D
:100C1000232A04FC232604FED9A0232404FE2DA8A5
:100C2000130744F5832784FE9607B306F7000327CE
:100C3000C4FE832784FEBA9796073E878327C4F4B1
:100C4000BA9713060002BE853685EF0070378327FA
:100C500084FE85072324F4FE032784FE8D47E3D119
:100C6000E7FC232204FE95A0232004FEA9A00D4743
:100C7000832704FE1D8F8327C4FE939637008327A6
:100C800044FEB69793962700832704FEB697BE8648
:100C9000832744F4B6971607930604FFBA960327F2
:100CA00044FE3697034747F62380E700832704FE78
:100CB00085072320F4FE032704FE8D47E3D9E7FAD6
:100CC000832744FE85072322F4FE032744FEFD47C5
:100CD000E3DCE7F88327C4FE91072326F4FE03270D
:100CE000C4FE8327C4FDE34AF7F201000100FA5075
:100CF0006A5429618280797122D60018232EA4FCBF
:100D0000232CB4FC232AC4FC832784FD13D7F7418A
:100D10000D8BBA9789872322F4FE232604FEBDA8F3
:100D2000232404FE95A08327C4FE8A07032744FDDD
:100D3000BA9798438327C4FE8A07832644FDB69753
:100D4000220798C38327C4FE8A07032744FDBA9766
:100D500098438327C4FE93962700832784FEB69783
:100D6000BE868327C4FDB69783C707003E868327C8
:100D7000C4FE8A07832644FDB697518F98C3832704
:100D800084FE85072324F4FE032784FE8D47E3DCDD
:100D9000E7F88327C4FE85072326F4FE0327C4FE55
:100DA000832744FEE34EF7F601000100325445610B
:100DB0008280797122D60018232EA4FC232CB4FC47
:100DC000232604FEB72704109C432326F4FE0327A2
:100DD00084FD8547631AF7000327C4FE8327C4FDFB
:100DE000D98F2326F4FE29A8832784FD91EB83273E
:100DF000C4FD93C7F7FF0327C4FEF98F2326F4FE33
:100E0000B72704100327C4FE98C30100325445617C
:100E10008280011122CE00102326A4FE2324B4FEDA
:100E2000832784FE9C43139707014183832784FE15
:100E3000DC43C207C1838607C207C183D98F1397DA
:100E400007014183832784FE9C47C207C1838E0725
:100E5000C207C183D98F139707014183832784FE7B
:100E6000DC47C207C1839207C207C183D98F13979A
:100E700007014183832784FE9C4BC207C1839607E9
:100E8000C207C183D98F139707014183832784FE4B
:100E9000DC4BC207C1839A07C207C183D98F13975E
:100EA000070141838327C4FE2393E70001007244B6
:100EB00005618280011106CE22CC00102326A4FEFB
:100EC0002324B4FE85450325C4FEE535832584FE31
:100ED000372504103D3F81450325C4FED93D01005F
:100EE000F240624405618280797106D622D40018EE
:100EF000232EA4FC231704FE85450325C4FD553D80
:100F0000B727041083D747002317F4FE8357E4FE66
:100F100093E717002317F4FEB72704100357E4FEE6
:100F20002392E70081450325C4FD61350100B250DD
:100F3000225445618280797106D622D40018232E6E
:100F4000A4FC231704FE85450325C4FD9D35B72762
:100F5000041083D747002317F4FE8357E4FE93E77A
:100F600027002317F4FEB72704100357E4FE23924B
:100F7000E70081450325C4FD2D3D0100B2502254F8
:100F800045618280797106D622D40018232EA4FCF4
:100F9000231704FE85450325C4FD213DB727041012
:100FA00083D747002317F4FE8357E4FE93E7070136
:100FB0002317F4FEB72704100357E4FE2392E7003B
:100FC00081450325C4FDF5330100B250225445612B
:100FD0008280797106D622D40018232EA4FC232CFB
:100FE000B4FC232AC4FC832744FD13D7F7410D8B9F
:100FF000BA9789872324F4FE17F6FF0F1306C61A43
:10100000832544FD032584FDF136138641D48325D1
:1010100044FD17F5FF0F13052519F1398545032503
:10102000C4FD413B232604FE05A0B7270410938688
:1010300041D40327C4FE0A073697184398C783276D
:10104000C4FE85072326F4FE0327C4FE832784FEFF
:10105000E34DF7FC81450325C4FDA13B0100B250DF
:10106000225445618280797106D622D40018232E3D
:10107000A4FC232CB4FC232AC4FC85450325C4FD11
:101080000D3B232604FE05A08327C4FE032784FD11
:10109000BA9703C70700B727041098CB8327C4FE6D
:1010A00085072326F4FE0327C4FE832744FDE34D72
:1010B000F7FC81450325C4FDED390100B2502254EF
:1010C00045618280797106D622D40018232EA4FCB3
:1010D000232CB4FC232AC4FC832784FDB1C385459B
:1010E0000325C4FDF931232604FE05A0372704108B
:1010F0008327C4FE8A07832684FDB697584798C382
:101100008327C4FE85072326F4FE0327C4FE832716
:1011100044FDE34DF7FC81450325C4FD593911A079
:101120000100B250225445618280797106D622D4E2
:1011300000185134232604FE0DA88327C4FE13D7BC
:10114000F7417D8BBA97958793F7F70F850713F7CC
:10115000F70F938641148327C4FEB6972380E700D8
:101160008327C4FE85072326F4FE0327C4FE9307C6
:10117000F03FE3D4E7FC1725000013052543EF00FB
:10118000D0257D554D3B232804FC232A04FC232C29
:1011900004FC232E04FC232004FE232204FE9307D8
:1011A00004FDBE857D5539331306004093854114F7
:1011B0007D550535232604FEB9A8232404FE35A059
:1011C0008327C4FE93F7F70F850713F7F70F9716DA
:1011D0000010938666BD832784FEB6972380E700C0
:1011E000832784FE85072324F4FE032784FEA1477A
:1011F000E3D8E7FC8327C4FE0547B317F70025466D
:1012000097150010938545BA3E85B13D8327C4FEEE
:1012100085072326F4FE0327C4FEE147E3DFE7F852
:101220007D55D93113054006EFF0CFBF17250000DB
:101230001305853BEF00701A232604FE79A083274F
:10124000C4FE0547B317F700130640389705001092
:10125000938585B53E85BD358325C4FE17250000E1
:101260001305053DEF003006232404FEA1A0170757
:101270000010130767B3832784FE8A07BA979C433D
:10128000BE85172500001305253FEF00D0038327F7
:1012900084FE13871700F947B367F70299E717250C
:1012A00000001305E53DEF005013832784FE8507FA
:1012B0002324F4FE032784FE93073038E3D9E7FAAA
:1012C0008327C4FE85072326F4FE0327C4FEE147D7
:1012D000E3D7E7F68547232EF4FC930704FDBE858C
:1012E0007D55C93E7D5579397D55FD3E1305400636
:1012F000EFF04FB3172500001305052FEF00F00D99
:10130000232604FE79A08327C4FE0547B317F70000
:101310001306403897050010938505A93E855D3377
:101320008325C4FE1725000013058530EF00A07942
:10133000232404FEA1A0170700101307E7A68327A4
:1013400084FE8A07BA979C43BE85172500001305C3
:10135000A532EF004077832784FE13871700F947F3
:10136000B367F70299E71725000013056531EF0011
:10137000D006832784FE85072324F4FE032784FEFA
:1013800093073038E3D9E7FA8327C4FE850723267D
:10139000F4FE0327C4FEE147E3D7E7F61725000074
:1013A0001305452EEF00700301A0AA88AE8732888E
:1013B000368546836399062097260000938646303B
:1013C00063F0C50C41676376E60A1307F00F333705
:1013D000C7000E073355E600AA9683C6060013051C
:1013E00000023697B306E540630CE500B397D700DB
:1013F00033D7E8003318D600B365F7003393D8002D
:1014000093580801B3D715031316080141821357E7
:101410000301B3F615033E85B305F602C206558FE8
:10142000637CB70042971385F7FF63670701637515
:10143000B7001385E7FF42970D8FB3771703420379
:101440001353030133571703C20733E36700B3068F
:10145000E6023A86637BD30042931306F7FF636686
:1014600003016374D3001306E7FF4205518D8145E4
:101470005DA8370500014147E36EA6F4614799BFB7
:1014800001E605473358C7024167637FE808130741
:10149000F00F6373070121453357A800BA9603C7BD
:1014A0000600130600022A97B306E6406315E60815
:1014B000B3870741854593580801131608014182F7
:1014C00013570301B3F61703B3D71703C206558F9B
:1014D000330EF6023E85637CC70142971385F7FF02
:1014E000636707016375C7011385E7FF42973307F9
:1014F000C741B3771703420313530301335717034D
:10150000C20733E36700B306E6023A86637BD30083
:1015100042931306F7FF636603016374D300130657
:10152000E7FF4205518D8280370700014145E365A1
:10153000E8F6614595B73318D800B3D5E700339383
:10154000D800B397D70033D7E80093580801336623
:10155000F70033F7150393170801C18313550601EC
:10156000B3D515034207498FB386B7022E85637C36
:10157000D70042971385F5FF636707016375D700AE
:101580001385E5FF4297B306D74033F716034206AB
:101590004182B3D616034207B388D702B367C700A8
:1015A000368763FC1701C2971387F6FF63E70701CD
:1015B00063F517011387E6FFC29793150501B387FB
:1015C0001741D98DCDBD63E1D514416763FFE602B4
:1015D0001307F00FB335D7008E0533D5B6001727A4
:1015E00000001307E70D2A970347070013050002C1
:1015F0002E97B305E5406311E5020545E3E5F6F2F4
:1016000033B5C8001345150039BF37070001C14580
:10161000E3E5E6FCE145D1B73353E600B396B60007
:101620003363D30033D5E700935E0301B376D5036C
:10163000B397B70033D7E8003368F7009317030177
:10164000C183135708013316B6003355D503C206BC
:10165000558F338FA7022A8E637CE7011A97130EEA
:10166000F5FF636767006375E701130EE5FF1A97DF
:101670003307E741B376D7033357D703C206B38E98
:10168000E70293170801C183D58F3A8563FCD70120
:101690009A971305F7FF63E7670063F5D701130512
:1016A000E7FF9A97420EB387D741C16E3365AE000C
:1016B0009386FEFF3373D50013580501F18E4182E6
:1016C000330ED302B306D80213570E013303C302FD
:1016D00036931A973308C8026373D70076989356E7
:1016E0000701369863E00703E39307D9C167FD1745
:1016F0007D8F4207337EFE00B398B8007297814514
:10170000E3F3E8E27D15A5B38145014529BDAA852E
:10171000814601460145D9A54111972700009387CD
:10172000671922C4172400001304C4181D8C26C294
:1017300006C60984BE8419E42244B24092444101A1
:101740006FF08FC67D1493172400A6979C43829751
:10175000DDB74111972700009387C71522C41724CE
:101760000000130424151D8C26C24AC006C6098435
:1017700081443E8963988402EFF02FC297270000CE
:1017800093874713172400001304C4121D8C098487
:1017900081443E89639F8400B240224492440249BE
:1017A0004101828093972400CA979C4385048297C5
:1017B000D1B793972400CA979C4385048297D9BFD9
:1017C000B3C7A5008D8BB306C50081E78D4763EED7
:1017D000C700AA876378D50A03C705008507850572
:1017E000A38FE7FEE3EAD7FE828013773500AA874E
:1017F00011CB03C7050085078505A38FE7FE13F707
:101800003700FDB713F7C6FF130607FE63FBC704D7
:1018100083A3050083A2450083AF850003AFC50005
:1018200083AE050103AE450103A3850183A8C5016D
:1018300023A0770023A2570003A8050223A4F701E1
:1018400023A6E70123A8D70123AAC70123AC670079
:1018500023AE1701938545029387470223AE07FF06
:1018600075B72E883E866360E6021388D7FF01466F
:10187000636607010D071D8F1376C7FFB297B295F8
:10188000E3ECD7F482808328080011061108232E88
:1018900016FFD1BF3D432A876373C3029377F700D6
:1018A000BDEFADE5937606FF3D8ABA960CC34CC3F7
:1018B0000CC74CC74107E36BD7FE11E28280B30629
:1018C000C3408A069702000096966780A600230709
:1018D000B700A306B7002306B700A305B70023058A
:1018E000B700A304B7002304B700A303B700230382
:1018F000B700A302B7002302B700A301B70023017A
:10190000B700A300B7002300B700828093F5F50F5E
:1019100093968500D58D93960501D58D61B79396E5
:1019200027009702000096968682E78086FA9680C6
:10193000C1171D8F3E96E374C3F8A5B7C5C583A72D
:10194000C5FF011122CC06CE1384C5FF63D3070067
:101950003E942AC6EF00501D17E7FF0F130787714B
:101960001C4332453A8689EB2322040000C36244BB
:10197000F24005616F00701B637EF4001440330772
:10198000D4006396E7009843DC43369718C05CC0E8
:1019900000C2F1BF3E87DC4399C3E37DF4FE1443EC
:1019A0003306D700631F86001040B29614C3330677
:1019B000D700E39EC7FA9043DC43B29614C35CC3DE
:1019C0007DB76375C400B1471CC155B71040B3065D
:1019D000C4006396D7009443DC43B29614C05CC045
:1019E00040C371B78280011126CA93843500F198F3
:1019F0004AC806CE22CC4EC6A104B1472A8963F755
:101A0000F404B14463E6B4044A85EF00F01197E7AB
:101A1000FF0F938727669843BE863A8429E417E42C
:101A2000FF0F130464651C4089E781454A85552AE8
:101A300008C0A6854A857522FD59631A3507B14746
:101A40002320F9004A85EF00500E31A0E3DC04FAB0
:101A5000B1472320F9000145F2406244D244424993
:101A6000B249056182801C40858F63CF07022D46F5
:101A70006376F6001CC03E9404C029A05C4063134A
:101A800087029CC24A85EF00500A1305B4009307F1
:101A9000440061993307F540E300F5FC3A94898FDF
:101AA0001CC05DBF5CC3F9BF2287404085BF1304E3
:101AB00035007198E30285FCB305A4404A851522E0
:101AC000E31C35FBADBF5D7122D406D62A842EDA25
:101AD00032DC36DEBAC0BEC2C2C4C6C603A581802F
:101AE00011C51C4D81E72AC6F92B32450C45541807
:101AF000228636CEEF00500AB250225461618280B5
:101B0000011126CA4AC806CE22CC4EC652C4AA84A7
:101B10002E8901C51C4D91E37D239C4C804499E3A3
:101B20002685552397270000938787CB631CF402F3
:101B3000C0408357C400A18BB1C71C48A1C7FD5941
:101B4000294A1C4483450900FD17B1E91CC463DE22
:101B500007062286A94526857D28FD576308F502DC
:101B6000294535A097270000938787C96314F4009F
:101B70008044C1B797270000938787C4E31BF4FA1A
:101B8000C04445BFA2852685B92255D97D55F2406E
:101B90006244D2444249B249224A056182801CC44F
:101BA000050963D70700184C63CBE700638945013B
:101BB0001C401387170018C02380B70059B722862E
:101BC00026859128E31F35F7D1B71C4013871700EE
:101BD00018C029472380E70061B7AA8503A5818043
:101BE00005B7411122C42A842E859707001023A926
:101BF000072406C6EFE04FDEFD576318F500970790
:101C0000001083A7E72391C31CC0B24022444101C6
:101C100082806FE02FD5011122CC26CA4AC806CE99
:101C20004EC6AA842E89328401C51C4D91E36129D8
:101C3000972700009387C7BA6319F406C0401C4C6D
:101C40001CC48357C400A18BC9C31C48BDCF1C480A
:101C500008409379F90F1379F90F1D8D5C4863469D
:101C6000F500A285268581262DE51C440505FD1776
:101C70001CC41C401387170018C0238037015C4820
:101C80006389A7008357C400858B81CBA94763165E
:101C9000F900A2852685012E0DEDF2406244D24462
:101CA000B2494A854249056182809727000093879F
:101CB00027B56314F400804459B797270000938731
:101CC00027B0E31EF4F6C0449DBFA28526852120DF
:101CD0003DDD7D59D9B7411122C426C24AC006C68E
:101CE00083A481802A892E8489C49C4C99E326850B
:101CF000D92E972700009387A7AE6317F402C04040
:101D00008317C4001397070193F687004183ADEA58
:101D10009376070195EA25472320E90093E7070416
:101D20002316F4007D5571A897270000938747ADCF
:101D30006314F4008044E9B797270000938747A80D
:101D4000E310F4FCC0446DBF118B0DC74C5889C91A
:101D5000930744046384F5004A85CD36232A0402A0
:101D60008357C4002322040093F7B7FD2316F40021
:101D70001C481CC08357C40093E787002316F40057
:101D80001C4881EF8357C4001307002093F70728EE
:101D90006385E700A2854A85CD298317C400139780
:101DA000070193F6170041839DC254482324040081
:101DB000B306D04014CC1448014581E613770708D8
:101DC00031FFB2402244924402494101828093761D
:101DD0002700014691E2504810C4F1BFAA8817E5D8
:101DE000FF0F1305A5291C4185E3170700101307F2
:101DF00067FC18C117E5FF7F1305C520BA8709C521
:101E00001C412324F708BA87D8437D487D55634693
:101E1000E804638D080203A887086300080413150B
:101E20002700429510C10323081005463316E6002B
:101E30003363C300232068102320D50889466397A5
:101E4000D80083264810558E2322C8109306170009
:101E50000A07D4C3BA978CC70145828083D7C500CF
:101E6000011122CC26CA06CE4AC84EC613F78700F7
:101E7000AA842E8465E7D8416347E000B8416344F3
:101E8000E0000145C1A058546DDF03A904009396FA
:101E9000370123A0040063DE060668488357C400A8
:101EA000918B99C75C401D8D5C5899C33C401D8D3A
:101EB0005C540C502A86814626858297FD5703572D
:101EC000C400631DF5009440F54763E4D708B707E5
:101ED00040208507B3D7D700858BA5CF1C48232288
:101EE00004001CC09317370163D80700FD57631423
:101EF000F5009C4091E368C84C5823A02401D1D13F
:101F0000930744046384F50026850D3C232A0402CC
:101F10008DBF0C508546014626850297FD57E31F6D
:101F2000F5F69C40A5DF75476385E7005947639543
:101F3000E70023A02401B1B78357C40093E7070447
:101F40002316F400F2406244D2444249B24905618A
:101F50008280136707042316E400EDB783A9050107
:101F6000E38109F203A905008D8B23A03501330914
:101F70003941014791E3D84918C4E35420F11C5476
:101F80000C50CA864E8626858297634AA0008357E6
:101F9000C4007D5593E707042316F40065B7AA999A
:101FA0003309A940D9BF9C49B9CF011122CC06CE33
:101FB0002A8411C51C4D81E72EC63122B2459727D0
:101FC00000009387E781639BF5004C408397C50031
:101FD00095C722856244F240056149B59727000004
:101FE000938707826394F5000C44CDB797170000E0
:101FF0009387077DE39CF5FC4C44C9BFF2406244E3
:1020000001450561828001458280411122C406C6D6
:102010002A842316B5002317C50023200500232298
:102020000500232405002322050623280500232A72
:102030000500232C0500214681451305C505EFF059
:102040007F85970700009387E75E5CD097070000C5
:10205000938747611CD497070000938787655CD4FA
:102060009707000093874768B24000D01CD82244ED
:102070004101828097050000938525F3A9A24111B3
:1020800026C2130680069384F5FFB384C4024AC0B7
:102090002E8922C406C693854407EFF0DF942A8474
:1020A00001CD2320050023222501310508C4138614
:1020B00084068145EFF00FFEB2402285224492440F
:1020C0000249410182801C4DADE3411122C406C684
:1020D00097070000938747FA1CD52324050423267D
:1020E00005042328050483A7C1802A846314F5000E
:1020F00085471CCD22851D2848C02285052808C497
:1021000022852D2048C4484001469145FD3D0844A4
:102110000546A545DD3D48440946C945FD35854789
:10212000B2401CCC2244410182808280411126C2EF
:1021300083A4C1809C4C4AC006C622C42A8999E364
:1021400026855137938484048044DC40FD1763D690
:1021500007009C40B9CF8440C5BF0317C40039E7CE
:10216000C1778507232204062320040023220400CC
:10217000232404005CC423280400232A0400232C05
:102180000400214681451305C405EFF0AFF0232A72
:102190000402232C04022324040423260404B24052
:1021A000228522449244024941018280130484061C
:1021B00071BF91454A85E13588C02A8449FDB14700
:1021C0002320F900E9BF797122D44AD04ECE52CCF7
:1021D0005AC85EC606D626D256CA2A892E8A130443
:1021E00085048149054BFD5B0444832A4400FD1AA4
:1021F00063D00A0200406DF8B25022549254025942
:10220000624AD24A424BB24B4E85F24945618280C6
:1022100083D7C400637BFB008397E4006387770167
:10222000A6854A85029AB3E9A90093848406C1B7BA
:102230005971CAD02E898395E500A2D4A6D286D63C
:102240003284B68463DC05008357C90023A00400F0
:1022500093F707088DE39307004005A03000C529D8
:10226000E34405FE3247BD67F98F7977BA9793B794
:1022700017009CC0CDB793070004B6501CC026546D
:102280009654065901456561828083D7C5000111C6
:1022900022CC06CE26CA4AC8898B2E8489CF9307C2
:1022A00074041CC01CC885475CC8F2406244D24418
:1022B000424905618280740030002A89953FA24519
:1022C000AA844A85EFF02FF201ED8317C40013F7BB
:1022D000072061FFF19B93E727002316F400C1B7A5
:1022E00097070000938747D92324F9028357C40036
:1022F00008C008C893E707082316F400A2475CC883
:10230000B24789CF8315E4004A859D2901C98357C7
:10231000C400F19B93E717002316F4000355C40093
:10232000C98C2316940051B7828082801C46FD1709
:102330001CC663DA0700184E63C5E700A94763941B
:10234000F5006FF05F8D1C422E851387170018C2B1
:102350002380B7008280011122CC26CA4AC84EC60B
:1023600052C406CE2A89AE893284B304D6007D5A7F
:1023700063149400014509A8834504004E864A85EC
:1023800075370504E31645FFF2406244D2444249E2
:10239000B249224A05618280357122CD26CB4AC9D5
:1023A0004EC706CF52C556C35AC1DEDEE2DCE6DABE
:1023B000AA89AE843289368401C51C4D91E321334C
:1023C000971700009387C741639BF40C83A44900CF
:1023D00083D7C400A18BF5C79C48E5C793070002CB
:1023E000A304F1029307000302D22305F10222C6DF
:1023F000930B5002971A0000938A8A42054C294B8E
:102400004A848347040099C36390770FB30C244137
:10241000630D2401E6864A86A6854E852D3FFD572D
:102420006306F51E9257E6973ED283470400638FFA
:10243000071CFD571309140002C802CE3ECA02CC85
:10244000A309010482D48345090015465685592EF7
:10245000C2471304190059E913F7070109C7130705
:102460000002A309E10413F7870009C71307B002AC
:10247000A309E104834609001307A0026380E6086C
:10248000F2474A8481462546034704009305140019
:10249000130707FD6379E60AB5CA3ECE85A89717EC
:1024A00000009387E7356395F40083A489000DB796
:1024B000971700009387C730E39CF4F083A4C9000A
:1024C00001BFA6854E85EFF01F8109D97D55FA40E1
:1024D0006A44DA444A49BA492A4A9A4A0A4BF65B9C
:1024E000665CD65C0D618280050421BF33055541D1
:1024F0003315AC00C98F3EC82289B1B73247930665
:102500004700184336C6634907023ACE0347040022
:102510009307E002631FF704034714009307A00228
:10252000631BF702B2470904138747009C433AC66E
:1025300063C107023ECA35A83307E04093E727008E
:102540003ACE3EC8E1B7B38767032E848546BA9773
:1025500025BFFD57C5B7050402CA814681472546F8
:102560000347040093051400130707FD6376E6068E
:10257000F1F2834504000D46171500001305C52A26
:10258000952411CD971700009387072A1D8D930777
:102590000004B397A700424505045D8D2AC8834512
:1025A00004001946171500001305452813091400E7
:1025B0002304B102052C3DC197E7FF7F938787A4D1
:1025C00095E74247B2471377071009CF91073EC6F8
:1025D0009257D2973ED22DB5B38767032E84854696
:1025E000BA97BDBF9D07E19BA107D5B778009706B5
:1025F0000000938686D626860C084E85970000003C
:10260000E7000000FD572A8AE314F5FC83D7C400D5
:1026100093F70704E39C07EA125555BD7800970627
:102620000000938686D326860C084E85F92CD9BFE8
:10263000411122C42E848395E50006C68123634997
:1026400005007C48AA977CC8B240224441018280A0
:102650008357C4007D777D17F98F2316F400EDB7FB
:1026600083D7C500011122CC26CA4AC84EC606CE61
:1026700093F70710AA842E843289B68991C783956F
:10268000E500894601462D228357C4007D777D17DA
:10269000F98F8315E4002316F4006244F240CE86DD
:1026A0004A86B24942492685D24405613DA8411176
:1026B00022C42E848395E50006C6DD28FD57035706
:1026C000C400631BF500FD77FD17F98F2316F40096
:1026D000B2402244410182808567D98F2316F400DD
:1026E00068C8FDB78395E5001DA8411122C42A845E
:1026F0002E85B285368697F7FF0F23A3077406C68B
:10270000EFD05FB5FD576318F50097F7FF0F83A76C
:10271000277391C31CC0B240224441018280411101
:1027200022C42A842E8597F7FF0F23AB077006C6B5
:10273000EFD01F9DFD576318F50097F7FF0F83A794
:10274000277091C31CC0B2402244410182804111D4
:1027500022C42A842E85B28597F7FF0F23A2076E25
:1027600006C6EFD0FF9BFD576318F50097F7FF0FE4
:1027700083A7076D91C31CC0B240224441018280EF
:10278000411122C42A842E8597F7FF0F23AA076AD6
:1027900006C6EFD03F9DFD576318F50097F7FF0F72
:1027A00083A7076A91C31CC0B240224441018280C2
:1027B000411122C42A842E85B285368697F7FF0FF1
:1027C00023A0076806C6EFD03F9BFD576318F500AE
:1027D00097F7FF0F83A7C76691C31CC0B24022447E
:1027E0004101828093F5F50F2A966314C5000145D7
:1027F000828083470500E38DB7FE0505FDB779713B
:1028000052CC9C493A8A984522D426D24ECE56CAFA
:1028100006D64AD05AC85EC6AA892E84B284B68A21
:1028200063D3E700BA879CC00347340419C3850704
:102830009CC01C4093F7070281C79C4089079CC03D
:102840000329040013796900631A0900130B94012A
:10285000FD5B5C449840998F634CF90483473404D2
:10286000B336F0001C4093F70702A5EB13063404BF
:10287000D6854E85029AFD576303F5041C40114628
:102880009840998B544481446397C700B384E640D1
:1028900063D3040081441C4418486354F700998FA3
:1028A000BE94014969047D5B63982405014509A82C
:1028B00085465A86D6854E85029A631E75017D55DA
:1028C000B250225492540259F249624AD24A424BBF
:1028D000B24B456182800509ADBF3307D4001306B2
:1028E0000003A301C7040347540493871600A2976B
:1028F0008906A381E7049DBF85462286D6854E853D
:10290000029AE30E65FB050945B7797122D426D2F8
:102910004AD04ECE06D652CC56CA5AC82E84B68954
:102920009386350483C5850193078007AA8432897D
:1029300063ECB7009307200663EDB7006386051CC0
:1029400093078005638BF512930A24042301B404D2
:1029500015A89387D5F993F7F70F5546E366F6FE6A
:1029600017160000130686EF8A07B2979C43B297AA
:1029700082871C43930A2404938647009C4314C314
:102980002301F404854765A21C40084313F6070899
:10299000930545000DC21C410CC363D80700130703
:1029A000D002B307F040A301E40417160000130699
:1029B00066E82947A9A013F607041C410CC371DE81
:1029C000C207C187D9BF10401C431378060813857E
:1029D00047006305080008C39C4339A0137606042A
:1029E00008C37DDA83D707001307F0061716000027
:1029F000130646E46384E50E2947A30104044C4012
:102A00000CC463C5050008406D9908C099E3B68AF7
:102A100099CDB68AB3F5E702FD1AB29583C50500D4
:102A20002380BA00BE85B3D7E702E3F5E5FEA147F0
:102A3000631EF7001C40858B91CB58401C4863C730
:102A4000E70093070003A38FFAFEFD1AB3865641F1
:102A500014C84E87CA867000A28526854D337D5ADC
:102A6000631B450D7D55B250225492540259F249D0
:102A7000624AD24A424B45618280A302B4041716CF
:102A80000000130626DB0C40084313F805081C4120
:102A90001105630D080208C313F7150001C793E57C
:102AA00005020CC04147B1FB0C4093F5F5FD0CC08D
:102AB000A9B71C4093E707021CC093078007A30235
:102AC000F40417160000130626D875BF13F8050482
:102AD00008C3E30308FCC207C1837DBF214731BFA0
:102AE00010401C434C4813780608138547006306C2
:102AF000080008C39C438CC301A808C313760604CE
:102B00009C4375DA2390B70023280400B68A91B756
:102B10001C43504081459386470014C383AA070095
:102B20005685C93101C53305554148C05C401CC8B4
:102B3000A301040439BF14485686CA8526858299A4
:102B4000E30245F31C40898B8DE7B2474844E35CC0
:102B5000F5F03E8509BF85465686CA852685829949
:102B6000E30265F1050A5C443247998FE345FAFEBA
:102B7000E9BF014A930A94017D5BF5B7411122C474
:102B80002A842E85B285368697F7FF0F23AA072A57
:102B900006C6EFD02FE0FD576318F50097F7FF0F3B
:102BA00083A7072A91C31CC0B240224441018280FE
:102BB0005472617020696E20457863657074696F26
:102BC0006E0D00004D43415553453A203078256C39
:102BD000780D0A004D45504320203A203078256C6E
:102BE000780D0A004D5456414C203A203078256C1F
:102BF000780D0A005472617020696E20496E746508
:102C000072727570740D0000464C4153485849501B
:102C100000000000464C415348000000494C4D0064
:102C200031303A31313A3030000000004A756C20C2
:102C3000203920323032310048756D6D696E67423F
:102C40006972642053444B204275696C6420546956
:102C50006D653A2025732C2025730D0A00000000B5
:102C6000446F776E6C6F6164204D6F64653A202508
:102C7000730D0A00435055204672657175656E6389
:102C80007920256C7520487A0D0A00000D0A2D2D3B
:102C90002D2D2D2D2D2D2D2D2D2D2D2D2D2D2D2D64
:102CA0002D2D2D2D2D2D2D2D2D2D2D2D2D2D2D2D54
:102CB0002D2D2D2D2D2D2D2D2D2D2D2D2D2D2D2D44
:102CC0002D2D2D2D2D2D2D2D2D2D2D2D2D2D2D2D34
:102CD0002D2D2D2D2D2D2D2D2D2D2D2D2D2D2D2D24
:102CE0002D2D2D2D2D2D2D2D2D2D2D2D2D2D2D2D14
:102CF0002D2D2D2D2D2D2D2D2D2D2D2D2D2D2D2D04
:102D00002D2D2D2D2D2D2D2D2D2D2D2D2D2D2D2DF3
:102D10002D2D2D2D2D2D2D2D2D2D2D2D2D2D2D2DE3
:102D20002D2D2D2D2D2D2D2D2D2D2D2D2D2D2D2DD3
:102D30002D2D2D2D0D0A2020202020202020202088
:102D40002020202020202020202020202020202E75
:102D5000517620202020202045425920202020206C
:102D6000202020202020202020494A202020202010
:102D700051532020202020202020202069644A2038
:102D80002020202042422E202020202020202020F1
:102D90002020202020373A2E20204967550D0A2078
:102DA0002020202020202020202020202020202023
:102DB00020202020202020204242202020202020CF
:102DC0005A512E2020202020202020203A3A2E2048
:102DD0002E42423220202E42425A2E2E3A69202084
:102DE0002020202037424A2020202E4242424445C3
:102DF0004251532020202020202020202E424272A9
:102E0000202042425A203A42422E20202020202ECA
:102E100042515167514242422E374242424242425F
:102E200042510D0A20202020202020202020202078
:102E30002020202020202020202037763A3A625A75
:102E40006969763A20204942516751424242202026
:102E5000202067425250555937514251536455739F
:102E6000555051422E202020202072423A2020200E
:102E700042422E2E2E3A42423A2E3A202020202044
:102E8000202071423A2020204C426A2020455142A5
:102E9000202020202020766969424269695920203B
:102EA00020202020202042420D0A20202020202007
:102EB00020202020202020202020202020202042F0
:102EC000425251445062674249202058515572760F
:102ED0003775492020202020374972693A2E6742F1
:102EE000593A3A3A3A764A32202020202042424249
:102EF00042424267694275373762423569765142CC
:102F00003A2020202020204251202020202E4271D3
:102F100020202020202E2E202020202020725137FB
:102F2000202020202069673A20202042640D0A20BA
:102F30002020202020202020202020202020202091
:102F4000202020202020202020203A2E2020202059
:102F50003242202020202020202020202076727243
:102F60003A203542372E2E3A3A3A3A3776202E20FA
:102F7000202020203A422020203A42753A3A5342FB
:102F8000593A3A50422E20202020204242622020EE
:102F900020202042427271424242424220202020A0
:102FA00020204242202020202020674269202072D9
:102FB00051370D0A202020202020202020202020F2
:102FC0002020202020202020202064422E2020426B
:102FD000422020202071422E20202020202020204E
:102FE00050424242454942425A553258584B535337
:102FF0003551424269202020202E42534520204254
:103000006A693A354275696935422020202020429C
:10301000424258204242424251425A49373A2020C5
:1030200020202020202E4242515142424220204264
:103030004220202055420D0A202020202020202040
:103040002020202020202020202020202020374247
:103050004C2037423A20554242424242424242428A
:103060002020202020202020203A42423A3A69693C
:10307000693A3A69692020202020202E6A42424283
:103080004B727259736A7576374C31737331752E82
:10309000202042423A42642035762E205942202098
:1030A00020202020202020204A4242422E20204260
:1030B00042202051425142514242514D590D0A2065
:1030C0002020202020202020202020202020202000
:1030D00020202020202E42512042422020724237C0
:1030E00020202020205142202020202020203A5142
:1030F00042713A3759594A59733771424A20202050
:10310000206942425A422E2037524A6972727272C4
:103110007272696935427220206920204244202061
:103120002020202042422020202020202020207209
:1031300072204220202052422020202E2E2E2E208F
:103140002037424A0D0A2020202020202020202045
:1031500020202020202020202020202020722E200F
:10316000422E202072423A2020202020424220205D
:1031700020202E4442427342503A7272727272722E
:103180003A4C4237202020202020202E423A202076
:103190002059504C4A4A754A6A59642E20202020F2
:1031A000202020425220202020202035423720207D
:1031B00020202020202020202E4237202042422084
:1031C0003A2E202020202E202E42690D0A20202079
:1031D00020202020202020202020202020202020EF
:1031E00020202020202067427358726942722020DC
:1031F00020202042422020202020517620204250B2
:10320000697237377637376975427620202020205B
:1032100020203A4269202020424269697269723A4C
:1032200037425820202020202020426720202020C4
:103230002020204242692020204C20202020202EC7
:103240004242425142422042424242424242207263
:10325000422E0D0A20202020202020202020202067
:1032600020202020202020202E4242424242424262
:10327000512E72424242424242424242202020208B
:103280002020202020425A69373776373737727529
:10329000427620202020202E204C427220202042E6
:1032A000427237374C37727642312020202020205E
:1032B0002E425120202020202020205142512064E5
:1032C00042512020202069423A2020375A202020D5
:1032D0002020202020204251200D0A2020202020C4
:1032E00020202020202020202020202020202020DE
:1032F000373A2020202020202067427620202020DE
:1033000020514220202020202020202E42423558CB
:10331000714B504B4B494D425820202020203742C2
:1033200042512E202020424231555349537550427C
:1033300062202020202020694242202020202020BE
:1033400020202037424242422E20202020205020A0
:10335000202020202020202020204A514242440DBD
:103360000A20202020202020202020202020202073
:103370002020202020202020202020202020203A33
:10338000692020202020202E2E20202020202020D8
:10339000202072202020202020202020203A2E20B3
:1033A00020202020202E2020202020203A692020AC
:1033B00020202020203A2E2020202020202E537252
:1033C00020202020202020202020202E69202020A6
:1033D00020202020202020202020202020202020ED
:1033E0002049720D0A2D2D2D2D2D2D2D2D2D2D2DFC
:1033F0002D2D2D2D2D2D2D2D2D2D2D2D2D2D2D2DFD
:103400002D2D2D2D2D2D2D2D2D2D2D2D2D2D2D2DEC
:103410002D2D2D2D2D2D2D2D2D2D2D2D2D2D2D2DDC
:103420002D2D2D2D2D2D2D2D2D2D2D2D2D2D2D2DCC
:103430002D2D2D2D2D2D2D2D2D2D2D2D2D2D2D2DBC
:103440002D2D2D2D2D2D2D2D2D2D2D2D2D2D2D2DAC
:103450002D2D2D2D2D2D2D2D2D2D2D2D2D2D2D2D9C
:103460002D2D2D2D2D2D2D2D2D2D2D2D2D2D2D2D8C
:103470002D2D2D2D2D2D2D2D2D2D2D2D2D2D2D2D7C
:103480002D2D2D2D2D2D2D2D2D2D2D0D0A202020D6
:10349000202020202020202020202020202020202C
:1034A000202020202020202020202020202020201C
:1034B000202020202020202020202020202020200C
:1034C00020202020202020202020202020202020FC
:1034D00020202020202020202020202020202020EC
:1034E00020202020202020202020202020202020DC
:1034F00020202020202020202020202020202020CC
:1035000020202020202020202020202020202020BB
:1035100020202020202020202020202020202020AB
:103520002020200D0A2020202020202020202020C4
:10353000202020202020202020202020202020208B
:10354000202020202020202020202020202020207B
:10355000202020202020202020202020202020206B
:10356000202020202020202020202020202020205B
:10357000202020202020202020202020202020204B
:10358000202020202020202020202020202020203B
:10359000202020202020202020202020202020202B
:1035A0002020202020200D002A2A2A2A2A2A2A2AFE
:1035B0002A2A2A2A2A2A2A2A2A2A2A2A2A2A436F0D
:1035C0006E76324420746573742A2A2A2A2A2A2A9B
:1035D0002A2A2A2A2A2A2A2A2A2A2A2A2A2A2A0D68
:1035E000000000002A2A2A2A2A2A2A2A2A2A2A2AE3
:1035F0002A2A2A2A2A2A2A2A2A2A2A2A6368616E39
:103600006E656C206F75747075742A2A2A2A2A2AAE
:103610002A2A2A2A2A2A2A2A2A2A2A2A2A2A2A2A0A
:103620002A2A2A2A2A2A0D0A0D0000002A2A2A2AD2
:103630002A2A2A2A2A2A2A2A2A2A2A2A2A2A2A2AEA
:103640002A2A2A2A6368616E6E656C202564206FC1
:1036500075747075742A2A2A2A2A2A2A2A2A2A2A5A
:103660002A2A2A2A2A2A2A2A2A2A2A2A2A2A2A2ABA
:103670002A0D0A0025366420000000000D0000001D
:103680002A2A2A2A2A2A2A2A2A2A2A2A2A2A2A2A9A
:103690002A2A2A2A436F6E76324420746573742076
:1036A000656E642A2A2A2A2A2A2A2A2A2A2A2A2AC1
:1036B0002A2A2A2A2A2A2A0D0A0D000000010202BB
:1036C00003030303040404040404040405050505BA
:1036D0000505050505050505050505050606060696
:1036E000060606060606060606060606060606067A
:1036F0000606060606060606060606060707070766
:103700000707070707070707070707070707070749
:103710000707070707070707070707070707070739
:103720000707070707070707070707070707070729
:103730000707070707070707070707070808080815
:1037400008080808080808080808080808080808F9
:1037500008080808080808080808080808080808E9
:1037600008080808080808080808080808080808D9
:1037700008080808080808080808080808080808C9
:1037800008080808080808080808080808080808B9
:1037900008080808080808080808080808080808A9
:1037A0000808080808080808080808080808080899
:1037B00008080808080808080808080800000000A9
:1037C00000000000000000000000000000000000F9
:1037D00000000000000000000000000000000000E9
:1037E00000000000000000000000000000000000D9
:1037F00000000000000000000000000000000000C9
:1038000000000000000000000000000000000000B8
:10381000000000000000000000000000232D302BFD
:1038200020000000686C4C00656667454647000054
:1038300030313233343536373839414243444546E6
:1038400000000000303132333435363738396162A8
:1038500063646566000000001AF1FFFF30F1FFFFAE
:10386000F0F0FFFFF0F0FFFFF0F0FFFFF0F0FFFFE0
:1038700030F1FFFFF0F0FFFFF0F0FFFFF0F0FFFF8F
:10388000F0F0FFFF88F2FFFF6EF1FFFF5AF2FFFF3B
:10389000F0F0FFFFF0F0FFFFB8F2FFFFF0F0FFFFE6
:1038A0006EF1FFFFF0F0FFFFF0F0FFFF62F2FFFFAD
:1038B00000000000DC370080FC370080BC3700804F
:1038C00000000000000000000000000000000000F8
:1038D00000000000000000000000000000000000E8
:1038E00000000000000000000000000000000000D8
:1038F00000000000000000000000000000000000C8
:1039000000000000000000000000000000000000B7
:10391000401E009000B4C40400000090000000901D
:040000058000000077
:00000001FF
