:0200000480007A
:1000000073700430735040309711001093818185D4
:1000100017010110130101FF970200009382822E45
:100020007390523073F0533073F0023217050000B2
:100030001305C50997050000938545096300B502BE
:10004000174600001306860C63FAC50083220500DC
:1000500023A0550011059105E3EAC5FE17450000F0
:100060001305C50A970500109385C5F917060010FA
:100070001306460063FAC5008322050023A055003D
:1000800011059105E3EAC5FE17050010130585FE6D
:100090009385819E6377B500232005001105E36DEC
:1000A000B5FE2D2D17250000130505A4EF10F02235
:1000B000EF10F026EF00301B01458145EF00903135
:0600C000EF00902C01A0EE
:10010000011122CE00102326A4FE9387019E2547CD
:1001100098C3FD573E85724405618280011122CE4D
:1001200000102326A4FE2324B4FE0327C4FE854723
:100130006307F7000327C4FE89476318F700832786
:1001400084FE0967D8C3814731A09387019E254764
:1001500098C3FD573E85724405618280011122CE0D
:1001600000102326A4FE85473E85724405618280E7
:10017000011122CE00102326A4FE2324B4FE232244
:10018000C4FE81473E85724405618280797106D63E
:1001900022D40018232EA4FC232CB4FC232AC4FC54
:1001A0008327C4FD99C3FD5739A8832784FD2326DF
:1001B000F4FE373501103526AA873E878327C4FE13
:1001C0002380E70085473E85B250225445618280F6
:1001D000011122CE00102326A4FE9707001093875A
:1001E00067E898438327C4FE3E979387819E6360A8
:1001F000F702970700109387E7E698438327C4FE2A
:100200003E9797F700109387E75F63F4E700FD5789
:1002100005A8970700109387E7E498438327C4FE57
:100220003E97970700109387E7E398C3970700105E
:10023000938747E398438327C4FEB307F040BA97F8
:100240003E85724405618280797106D622D40018F9
:10025000232EA4FC232CB4FC232AC4FC0325C4FDB8
:10026000EF10304AAA8799E3FD57B1A8832784FD90
:100270002324F4FE232604FE3DA8032784FE8327BF
:10028000C4FEBA9703C70700A9476316F700B54530
:10029000373501103124032784FE8327C4FEBA9723
:1002A00083C70700BE8537350110DD2A8327C4FECA
:1002B00085072326F4FE0327C4FE832744FDE36E4F
:1002C000F7FA832744FD3E85B2502254456182806F
:1002D000000000000000000000000000000000001E
:1002E000000000000000000000000000000000000E
:1002F00000000000000000000000000000000000FE
:100300005D7106C012C216C41AC61EC82ACA2ECCF7
:1003100032CE36D03AD23ED442DC46DEF2C0F6C20D
:10032000FAC4FEC6F322103416D8F322203416D6AF
:10033000732520348A85352BC25273901234B25201
:100340007390223482401242A2423243C243524549
:10035000E245724682561257A2576258F258064E2C
:10036000964E264FB64F61617300203000000000AA
:10037000000000000000000000000000011122CE7B
:1003800000102326A4FE2324B4FE2322C4FE8327C8
:10039000C4FE93B7170093F7F70F99C3FD5751A801
:1003A000032744FE89476301F706032744FE894774
:1003B00063EFE706832744FE99C7032744FE85477A
:1003C000630FF700ADA08327C4FE985F832784FEE8
:1003D00093C7F7FF7D8F8327C4FE98DF91A88327FB
:1003E000C4FED85F832784FE93C7F7FF7D8F8327E2
:1003F000C4FED8DF8327C4FE985F832784FE5D8F09
:100400008327C4FE98DF2DA08327C4FED85F8327EF
:1004100084FE5D8F8327C4FED8DF8327C4FE985FE8
:10042000832784FE5D8F8327C4FE98DF11A001001F
:1004300081473E85724405618280011122CE001001
:100440002326A4FE2324B4FE8327C4FE93B71700FB
:1004500093F7F70F99C3FD5781A097070010938773
:10046000A7C09843832784FEB357F7021387F7FF8B
:100470008327C4FE98CF8327C4FE9C4713E7170049
:100480008327C4FE98C78327C4FEDC4713E7170001
:100490008327C4FED8C781473E85724405618280A8
:1004A000011122CE00102326A4FEAE87A305F4FE80
:1004B0008327C4FE93B7170093F7F70F99C3FD572F
:1004C00029A801008327C4FE9C43E3CD07FE034710
:1004D000B4FE8327C4FE98C381473E8572440561FC
:1004E0008280797122D60018232EA4FC8327C4FDB4
:1004F00093B7170093F7F70F81C79307F00F31A851
:100500008327C4FDDC432326F4FE8327C4FEE3C90E
:1005100007FE8327C4FE93F7F70F3E8532544561EB
:100520008280411122C60008A1673E853244410104
:100530008280397106DE22DC26DA80002326A4FCC4
:10054000CD372326A4FE37070002B167BA9703A769
:1005500087FF83A7C7FF2324E4FE37070002B167A4
:10056000BA9703A787FF83A7C7FF2322E4FEF327D9
:1005700000B0BE84A6872320F4FE032744FE832711
:1005800084FEE30CF7FC37070002B167BA9703A7B4
:1005900087FF83A7C7FF832744FEB307F740232EB7
:1005A000F4FCF32700B0BE842687832704FEB3073C
:1005B000F740232CF4FC0327C4FD8327C4FCE36429
:1005C000F7FC032784FD8327C4FD3357F7028327F5
:1005D000C4FE3307F702832684FD8327C4FDB3F6E8
:1005E000F6028327C4FEB386F6028327C4FDB3D781
:1005F000F602BA973E85F2506254D254216182804D
:10060000011106CE22CC0010054525371305400602
:100610000D372326A4FE8327C4FE3E85F2406244A4
:1006200005618280397106DE22DC80002326A4FC6D
:100630008327C4FC3E868146935716019398F600A3
:10064000B3E817011318F6001306803E8146428571
:10065000C685EF1040122A87AE872324E4FE2326A6
:10066000F4FE37070002B167BA9703A787FF83A795
:10067000C7FF2320E4FE2322F4FE37070002B16700
:10068000BA9703A887FF83A8C7FF032504FE832525
:1006900044FE3306A840B287B337F800B386B840AB
:1006A000B387F640BE86232CC4FC232ED4FC03273C
:1006B000C4FE8327C4FDE3E2E7FC0327C4FE8327CF
:1006C000C4FD6318F700032784FE832784FDE3E657
:1006D000E7FA0100F250625421618280411122C682
:1006E0000008970700109387279837B7C4041307AB
:1006F000074098C30100324441018280011106CEB7
:1007000022CC00102326A4FE2324B4FE17250000CB
:1007100013050576EF10E07B8325C4FE1725000046
:1007200013054576EF10A069F3271034BE80868745
:10073000BE85172500001305E575EF104068F32707
:100740003034BE808687BE85172500001305857569
:10075000EF10E06601A0011106CE22CC0010232686
:10076000A4FE2324B4FE172500001305A574EF1082
:1007700040768325C4FE172500001305A570EF10F1
:100780000064F3271034BE808687BE8517250000DD
:1007900013054570EF10A062F3273034BE808687C2
:1007A000BE85172500001305E56FEF1040610100BD
:1007B000F240624405618280011122CE001023269E
:1007C00004FE1DA017070000130787F3970600100B
:1007D0009386068C8327C4FE8A07B69798C383271F
:1007E000C4FE85072326F4FE0327C4FEA947E3DBE6
:1007F000E7FC01000100724405618280011122CEF4
:100800000010232604FE1DA0170700001307E7F4BD
:10081000970600109386868A8327C4FE8A07B697B8
:1008200098C38327C4FE85072326F4FE0327C4FE4E
:1008300093074003E3DAE7FC232604FE0DA0170725
:100840000000130787F19386C1928327C4FE8A07AD
:10085000B69798C38327C4FE85072326F4FE032793
:10086000C4FEA547E3DDE7FC010001007244056119
:100870008280397106DE22DC26DA80002326A4FC81
:100880002324B4FC8327C4FC63DF070C232604FE67
:100890000327C4FC8567FD17F98F2324F4FE032783
:1008A00084FEAD47631CF708F32740F1BE84A6879A
:1008B0002322F4FE832744FE1397C700B707200CBA
:1008C0009107BA972320F4FE832704FE9C43232438
:1008D000F4FE032784FE9307400363E4E70817F759
:1008E000FF0F1307A77D832784FE8A07BA979C43CF
:1008F0002326F4FE8327C4FE81CB8327C4FE8325F1
:1009000084FC0325C4FC8297832784FE232EF4FCF9
:10091000F32740F1BE84A687232CF4FC832784FDB3
:100920001397C700B707200C9107BA97232AF4FC46
:10093000832744FD0327C4FD98C325A01387C192D4
:10094000832784FE8A07BA979C432326F4FE8327D5
:10095000C4FE81CB8327C4FE832584FC0325C4FC0D
:100960008297814739A0832584FC0325C4FC012894
:10097000AA873E85F2506254D254216182807971F7
:1009800006D622D40018232EA4FC232CB4FC032763
:10099000C4FD8567FD17F98F2324F4FE032784FE29
:1009A000A94763EEE70017F7FF0F1307676E83276A
:1009B00084FE8A07BA979C432326F4FE39A0970742
:1009C00000009387E7D32326F4FE8327C4FE81CB60
:1009D0008327C4FE832584FD0325C4FD82978147B8
:1009E0003E85B250225445618280011106CE22CC50
:1009F0000010972700009387274D2322F4FE9727A6
:100A000000009387274D2324F4FE97270000938747
:100A1000E74C2326F4FE172600001306664C9725A4
:100A200000009385A54C172500001305E54CEF1039
:100A300000398327C4FEBE85172500001305454EE7
:100A4000EF10E03797F7FF0F938707629C43BE854F
:100A5000172500001305054EEF1060360100F24027
:100A6000624405618280397106DE22DC26DA80006C
:100A7000413E2A8797F7FF0F9387075F98C3054684
:100A8000B705030037250110D538F1679385072096
:100A9000373501105D32913F05338D339307500395
:100AA0002326F4FE232404FE61A8832784FE232248
:100AB000F4FEF32740F1BE84A6872320F4FE8327AB
:100AC00004FE13977700832744FE95838A073E9799
:100AD000B727000CBA97232EF4FC8327C4FD9C4350
:100AE000232CF4FC832744FEFD8B0547B317F70046
:100AF00093C7F7FF3E87832784FDF98F232CF4FCEF
:100B00008327C4FD032784FD98C30100832784FE47
:100B1000232AF4FC232804FC832744FD1397270091
:100B2000B707000CBA972326F4FC8327C4FC0327DD
:100B300004FD98C30100832784FE85072324F4FE67
:100B40000327C4FE832784FEE3E1E7F6232404FCA5
:100B5000F32740F1BE84A6872322F4FC832744FCBC
:100B60001397C700B707200CBA972320F4FC8327FC
:100B700004FC032784FC98C3010001000100F2502B
:100B80006254D25421618280011122CE00102326AA
:100B9000A4FE0100724405618280411122C6000852
:100BA0000100324441018280411122C60008010047
:100BB000324441018280411106C622C40008172533
:100BC00000001305A538EF10C0300100B2402244E8
:100BD00041018280797106D622D40018232604FEB2
:100BE000232404FE232204FEF937173500001305E1
:100BF000A5C7EF10002EB72704107D5798C3B7275D
:100C00000410910709472390E700173500001305EA
:100C100065C9EF10002C97F7FF0F9387A74523A016
:100C2000070085A0B7270410A10717F7FF0F1307C8
:100C30006744184398C397F7FF0F9387A7439C43D4
:100C4000BE8517350000130565C6EF10401797F7EE
:100C5000FF0F938727429C438507FD8B99E7173544
:100C60000000130525C5EF10C02697F7FF0F9387E7
:100C700067409C431387170097F7FF0F9387873FC1
:100C800098C397F7FF0F9387E73E98439307F03F8A
:100C9000E3DAE7F817350000130505C2EF1060230B
:100CA000B7270410054798C385472320F4FE97F71C
:100CB000FF0F9387273C23A00700A1A8B7270410A4
:100CC000C107032704FE98C3832504FE17350000DF
:100CD0001305C5BDEF10A00E97F7FF0F9387873957
:100CE0009C43138717008D47B367F70299E71735C1
:100CF0000000130525BCEF10C01D97F7FF0F938769
:100D000067379C431387170097F7FF0F9387873642
:100D100098C397F7FF0F9387E7359843A147E3DF21
:100D2000E7F8173500001305E5BDEF10801AB72767
:100D30000410094798C389472320F4FE97F7FF0F53
:100D40009387473323A00700A1A8B7270410C10742
:100D5000032704FE98C3832504FE173500001305FE
:100D6000E5B4EF10C00597F7FF0F9387A7309C43BA
:100D7000138717008D47B367F70299E7173500000F
:100D8000130545B3EF10E01497F7FF0F9387872EF5
:100D90009C431387170097F7FF0F9387A72D98C3DE
:100DA00097F7FF0F9387072D9843A147E3DFE7F8F5
:100DB000173500001305C5B9EF10A011B7270410AF
:100DC000114798C38D472320F4FE97F7FF0F9387B1
:100DD000672A23A00700A1A8B7270410C10703278B
:100DE00004FE98C3832504FE17350000130505ACE7
:100DF000EF00F07C97F7FF0F9387C7279C4313877B
:100E000017008D47B367F70299E717350000130500
:100E100065AAEF10000C97F7FF0F9387A7259C4357
:100E20001387170097F7FF0F9387C72498C397F787
:100E3000FF0F938727249843A147E3DFE7F817358F
:100E400000001305A5B5EF10C008B727041021470F
:100E500098C391472320F4FE97F7FF0F93878721CC
:100E600023A00700A1A8B7270410C107032704FE89
:100E700098C3832504FE17350000130525A3EF0052
:100E8000107497F7FF0F9387E71E9C431387170093
:100E90008D47B367F70299E717350000130585A161
:100EA000EF10200397F7FF0F9387C71C9C4313870E
:100EB000170097F7FF0F9387E71B98C397F7FF0F6C
:100EC0009387471B9843A147E3DFE7F817350000F6
:100ED000130585B1EF00F07FB7270410414798C391
:100EE00095472320F4FE97F7FF0F9387A71823A0B9
:100EF0000700A1A8B7270410C107032704FE98C361
:100F0000832504FE173500001305459AEF00306B6A
:100F100097F7FF0F938707169C43138717008D479A
:100F2000B367F70299E7173500001305A598EF009E
:100F3000507A97F7FF0F9387E7139C4313871700A7
:100F400097F7FF0F9387071398C397F7FF0F9387C0
:100F500067129843A147E3DFE7F817350000130550
:100F600065ADEF001077B72704101307000298C390
:100F700099472320F4FE97F7FF0F9387A70F23A02D
:100F80000700A1A8B7270410C107032704FE98C3D0
:100F9000832504FE1735000013054591EF003062EC
:100FA00097F7FF0F9387070D9C43138717008D4713
:100FB000B367F70299E7173500001305A58FEF0017
:100FC000507197F7FF0F9387E70A9C431387170029
:100FD00097F7FF0F9387070A98C397F7FF0F938739
:100FE00067099843A147E3DFE7F8173500001305C9
:100FF00025A9EF00106EB72704101307000498C34B
:101000009D472320F4FE97F7FF0F9387A70623A0A1
:101010000700A1A8B7270410C107032704FE98C33F
:10102000832504FE1735000013054588EF0030596D
:1010300097F7FF0F938707049C43138717008D478B
:10104000B367F70299E7173500001305A586EF008F
:10105000506897F7FF0F9387E7019C4313871700AA
:1010600097F7FF0F9387070198C397F7FF0F9387B1
:1010700067009843A147E3DFE7F817350000130541
:10108000E5A4EF001065B72704101307000898C304
:10109000A1472320F4FE97F7FF0F9387A7FD23A016
:1010A0000700A1A8B7270410C107032704FE98C3AF
:1010B000832504FE172500001305457FEF003050FF
:1010C00097F7FF0F938707FB9C43138717008D4704
:1010D000B367F70299E7172500001305A57DEF0018
:1010E000505F97F7FF0F9387E7F89C43138717002C
:1010F00097F7FF0F938707F898C397F7FF0F93872A
:1011000067F79843A147E3DFE7F8B7270410130711
:10111000F00F98C3B7270410910705472390E70005
:1011200013054006EFF00FD0173500001305C59EDC
:10113000EF00305A17350000130585A2EF007059F3
:10114000B7270410054798C397F7FF0F938787F2D7
:1011500023A007009DA0B7270410B107984397F775
:10116000FF0F9387E7F198C397F7FF0F938747F136
:101170009C43BE851725000013054573EF003044DE
:1011800097F7FF0F938707EF9C4313871700F947E3
:10119000B367F70299E7172500001305A571EF0063
:1011A000505397F7FF0F9387E7EC9C431387170083
:1011B00097F7FF0F938707EC98C397F7FF0F938775
:1011C00067EB984393073038E3D7E7F8173500000B
:1011D0001305859DEF00F04FB7270410094798C30A
:1011E00097F7FF0F938707E923A007009DA0B72774
:1011F0000410B107984397F7FF0F938767E898C3E8
:1012000097F7FF0F9387C7E79C43BE85172500001C
:101210001305C569EF00B03A97F7FF0F938787E58D
:101220009C4313871700F947B367F70299E717251F
:10123000000013052568EF00D04997F7FF0F93874B
:1012400067E39C431387170097F7FF0F938787E2A5
:1012500098C397F7FF0F9387E7E1984393073038D8
:10126000E3D7E7F81735000013058598EF007046BF
:10127000B7270410114798C397F7FF0F938787DFAD
:1012800023A007009DA0B7270410B107984397F744
:10129000FF0F9387E7DE98C397F7FF0F938747DE2B
:1012A0009C43BE851725000013054560EF003031D3
:1012B00097F7FF0F938707DC9C4313871700F947C5
:1012C000B367F70299E7172500001305A55EEF0045
:1012D000504097F7FF0F9387E7D99C431387170078
:1012E00097F7FF0F938707D998C397F7FF0F938757
:1012F00067D8984393073038E3D7E7F817350000ED
:1013000013058593EF00F03CB7270410214798C3DD
:1013100097F7FF0F938707D623A007009DA0B72755
:101320000410B107984397F7FF0F938767D598C3C9
:1013300097F7FF0F9387C7D49C43BE8517250000FE
:101340001305C556EF00B02797F7FF0F938787D295
:101350009C4313871700F947B367F70299E71725EE
:10136000000013052555EF00D03697F7FF0F938740
:1013700067D09C431387170097F7FF0F938787CF9A
:1013800098C397F7FF0F9387E7CE984393073038BA
:10139000E3D7E7F8173500001305858EEF007033AB
:1013A000B7270410414798C397F7FF0F938787CC5F
:1013B00023A007009DA0B7270410B107984397F713
:1013C000FF0F9387E7CB98C397F7FF0F938747CB20
:1013D0009C43BE85172500001305454DEF00301EC8
:1013E00097F7FF0F938707C99C4313871700F947A7
:1013F000B367F70299E7172500001305A54BEF0027
:10140000502D97F7FF0F9387E7C69C43138717006C
:1014100097F7FF0F938707C698C397F7FF0F938738
:1014200067C5984393073038E3D7E7F817350000CE
:1014300013058589EF00F029B72704101307000270
:1014400098C397F7FF0F9387E7C223A007009DA0DB
:10145000B7270410B107984397F7FF0F938747C248
:1014600098C397F7FF0F9387A7C19C43BE851725A5
:1014700000001305A543EF00901497F7FF0F938723
:1014800067BF9C4313871700F947B367F70299E7D3
:101490001725000013050542EF00B02397F7FF0F53
:1014A000938747BD9C431387170097F7FF0F9387D8
:1014B00067BC98C397F7FF0F9387C7BB9843930701
:1014C0003038E3D7E7F81735000013056584EF00DF
:1014D0005020B72704101307000498C397F7FF0F95
:1014E000938747B923A007009DA0B7270410B10731
:1014F000984397F7FF0F9387A7B898C397F7FF0F05
:10150000938707B89C43BE85172500001305053A4D
:10151000EF00F00A97F7FF0F9387C7B59C43138737
:101520001700F947B367F70299E71725000013057D
:101530006538EF00101A97F7FF0F9387A7B39C4306
:101540001387170097F7FF0F9387C7B298C397F7D2
:10155000FF0F938727B2984393073038E3D7E7F814
:10156000172500001305457FEF00B016B7270410BC
:101570001307000898C397F7FF0F9387A7AF23A01F
:1015800007009DA0B7270410B107984397F7FF0FF6
:10159000938707AF98C397F7FF0F938767AE9C4376
:1015A000BE851725000013056530EF00500197F741
:1015B000FF0F938727AC9C4313871700F947B36746
:1015C000F70299E7172500001305C52EEF007010EC
:1015D00097F7FF0F938707AA9C431387170097F786
:1015E000FF0F938727A998C397F7FF0F938787A8C3
:1015F000984393073038E3D7E7F817250000130521
:10160000257AEF00100D172500001305257DEF004A
:10161000500C1735000013052580EF00900B25AA0C
:1016200097F7FF0F938747A59C43BE8517250000BA
:101630001305C57FEF00A078232604FE232404FEB3
:1016400097F7FF0F938707A323A007004DA8032751
:1016500044FEB70700A0BA973E878327C4FE1CC389
:10166000032744FEB70700A0BA979C43232EF4FC3F
:101670008327C4FD0327C4FE630DF70497F7FF0F0C
:101680009387C79F9C431387170097F7FF0F938794
:10169000E79E98C397F7FF0F9387479E9C43BE85AD
:1016A000172500001305C579EF006071832784FEBC
:1016B000138717002324E4FE0327C4FD8326C4FEFA
:1016C000032644FEBE85172500001305257BEF0089
:1016D000006F8327C4FE85072326F4FE832744FE7C
:1016E00091072322F4FE97F7FF0F9387A7989C4357
:1016F0001387170097F7FF0F9387C79798C397F73C
:10170000FF0F938727979843B7071000E341F7F43B
:1017100097F7FF0F93874796984397F7FF0F9387A5
:10172000E7959C433E86BA8517250000130545784A
:10173000792597F7FF0F9387679423A0070097F702
:10174000FF0F938767939C431387170097F7FF0F4B
:101750009387879298C397F7FF0F9387E7919843F2
:101760009307F003E3DEE7EA17250000130505778A
:10177000EF00207601A0AA88AE873288368546839E
:1017800063990620972600009386067963F0C50CBE
:1017900041676376E60A1307F00F3337C7000E0779
:1017A0003355E600AA9683C6060013050002369755
:1017B000B306E540630CE500B397D70033D7E800E4
:1017C0003318D600B365F7003393D8009358080157
:1017D000B3D7150313160801418213570301B3F65B
:1017E00015033E85B305F602C206558F637CB7002C
:1017F00042971385F7FF636707016375B700138589
:10180000E7FF42970D8FB37717034203135303018A
:1018100033571703C20733E36700B306E6023A867D
:10182000637BD30042931306F7FF6366030163747F
:10183000D3001306E7FF4205518D81455DA83705AA
:1018400000014147E36EA6F4614799BF01E60547F1
:101850003358C7024167637FE8081307F00F6373CB
:10186000070121453357A800BA9603C7060013069F
:1018700000022A97B306E6406315E608B3870741DE
:101880008545935808011316080141821357030137
:10189000B3F61703B3D71703C206558F330EF602FC
:1018A0003E85637CC70142971385F7FF6367070195
:1018B0006375C7011385E7FF42973307C741B377C5
:1018C000170342031353030133571703C20733E3CC
:1018D0006700B306E6023A86637BD30042931306A1
:1018E000F7FF636603016374D3001306E7FF420545
:1018F000518D8280370700014145E365E8F6614577
:1019000095B73318D800B3D5E7003393D800B39711
:10191000D70033D7E800935808013366F70033F750
:10192000150393170801C18313550601B3D5150399
:101930004207498FB386B7022E85637CD700429752
:101940001385F5FF636707016375D7001385E5FF0E
:101950004297B306D74033F7160342064182B3D607
:1019600016034207B388D702B367C700368763FC04
:101970001701C2971387F6FF63E7070163F51701A5
:101980001387E6FFC29793150501B3871741D98DD9
:10199000CDBD63E1D514416763FFE6021307F00F85
:1019A000B335D7008E0533D5B600172700001307CF
:1019B000A7562A9703470700130500022E97B30581
:1019C000E5406311E5020545E3E5F6F233B5C800ED
:1019D0001345150039BF37070001C145E3E5E6FCB3
:1019E000E145D1B73353E600B396B6003363D30075
:1019F00033D5E700935E0301B376D503B397B70001
:101A000033D7E8003368F70093170301C1831357F6
:101A100008013316B6003355D503C206558F338FF0
:101A2000A7022A8E637CE7011A97130EF5FF6367FE
:101A300067006375E701130EE5FF1A973307E74167
:101A4000B376D7033357D703C206B38EE702931793
:101A50000801C183D58F3A8563FCD7019A97130596
:101A6000F7FF63E7670063F5D7011305E7FF9A9770
:101A7000420EB387D741C16E3365AE009386FEFF39
:101A80003373D50013580501F18E4182330ED30212
:101A9000B306D80213570E013303C30236931A97C5
:101AA0003308C8026373D7007698935607013698B7
:101AB00063E00703E39307D9C167FD177D8F4207F2
:101AC000337EFE00B398B80072978145E3F3E8E2F5
:101AD0007D15A5B38145014529BDAA8581460146ED
:101AE0000145EDA34111972700009387276222C487
:101AF00017240000130484611D8C26C206C60984C5
:101B0000BE8419E42244B240924441016FF0CF896F
:101B10007D1493172400A6979C438297DDB741114B
:101B2000972700009387875E22C4172400001304C0
:101B3000E45D1D8C26C24AC006C6098481443E89E4
:101B400063988402EFF06F85972700009387075C06
:101B5000172400001304845B1D8C098481443E8992
:101B6000639F8400B2402244924402494101828032
:101B700093972400CA979C4385048297D1B7939783
:101B80002400CA979C4385048297D9BF3D432A8786
:101B90006373C3029377F700BDEFADE5937606FF5D
:101BA0003D8ABA960CC34CC30CC74CC74107E36BC4
:101BB000D7FE11E28280B306C3408A069702000076
:101BC00096966780A6002307B700A306B7002306F2
:101BD000B700A305B7002305B700A304B70023048B
:101BE000B700A303B7002303B700A302B700230283
:101BF000B700A301B7002301B700A300B70023007B
:101C0000B700828093F5F50F93968500D58D939656
:101C10000501D58D61B7939627009702000096962F
:101C20008682E78086FA9680C1171D8F3E96E37400
:101C3000C3F8A5B7C5C583A7C5FF011122CC06CE41
:101C40001384C5FF63D307003E942AC6EF00901C9F
:101C500017E7FF0F130707431C4332453A8689EB0A
:101C60002322040000C36244F24005616F00B01AF1
:101C7000637EF40014403307D4006396E700984372
:101C8000DC43369718C05CC000C2F1BF3E87DC431E
:101C900099C3E37DF4FE14433306D700631F860027
:101CA0001040B29614C33306D700E39EC7FA9043A0
:101CB000DC43B29614C35CC37DB76375C400B147FF
:101CC0001CC155B71040B306C4006396D7009443B7
:101CD000DC43B29614C05CC040C371B7828001116E
:101CE00026CA93843500F1984AC806CE22CC4EC647
:101CF000A104B1472A8963F7F404B14463E6B4044C
:101D00004A85EF00301197E7FF0F9387A737984375
:101D1000BE863A8429E417E4FF0F1304E4361C401E
:101D200089E781454A85552A08C0A6854A857522D6
:101D3000FD59631A3507B1472320F9004A85EF00A2
:101D4000900D31A0E3DC04FAB1472320F9000145EE
:101D5000F2406244D2444249B249056182801C404B
:101D6000858F63CF07022D466376F6001CC03E9434
:101D700004C029A05C40631387029CC24A85EF001F
:101D800090091305B4009307440061993307F540A7
:101D9000E300F5FC3A94898F1CC05DBF5CC3F9BFBA
:101DA0002287404085BF130435007198E30285FC0B
:101DB000B305A4404A851522E31C35FBADBF5D7118
:101DC00022D406D62A842EDA32DC36DEBAC0BEC26F
:101DD000C2C4C6C603A5818011C51C4D81E72AC6B1
:101DE000C92B32450C455418228636CEEF00900997
:101DF000B250225461618280011126CA4AC806CEBF
:101E000022CC4EC652C4AA842E8901C51C4D91E332
:101E10004D239C4C804499E32685612B9727000035
:101E200093878721631CF402C0408357C400A18BB1
:101E3000B1C71C48A1C7FD59294A1C448345090064
:101E4000FD17B1E91CC463DE07062286A945268575
:101E50005D28FD576308F502294535A09727000046
:101E60009387871F6314F4008044C1B7972700004D
:101E70009387871AE31BF4FAC04445BFA2852685E1
:101E8000992255D97D55F2406244D2444249B24923
:101E9000224A056182801CC4050963D70700184CDB
:101EA00063CBE700638945011C401387170018C006
:101EB0002380B70059B722862685B120E31F35F766
:101EC000D1B71C401387170018C029472380E700AB
:101ED00061B7AA8503A5818005B7411122C42A8470
:101EE0002E8523A0019E06C6EFE08FAEFD57631638
:101EF000F50083A7019E91C31CC0B240224441015A
:101F000082806FE0AFA5011122CC26CA4AC806CE56
:101F10004EC6AA842E89328401C51C4D91E35129F5
:101F200097270000938747116319F406C0401C4CA3
:101F30001CC48357C400A18BC9C31C48BDCF1C4817
:101F400008409379F90F1379F90F1D8D5C486346AA
:101F5000F500A2852685352E2DE51C440505FD17C7
:101F60001CC41C401387170018C0238037015C482D
:101F70006389A7008357C400858B81CBA94763166B
:101F8000F900A285268531260DEDF2406244D24447
:101F9000B2494A85424905618280972700009387AC
:101FA000A70B6314F400804459B797270000938768
:101FB000A706E31EF4F6C0449DBFA2852685212016
:101FC0003DDD7D59D9B7411122C426C24AC006C69B
:101FD00083A481802A892E8489C49C4C99E3268518
:101FE000C92E97270000938727056317F402C04086
:101FF0008317C4001397070193F687004183ADEA66
:102000009376070195EA25472320E90093E7070423
:102010002316F4007D5571A8972700009387C70306
:102020006314F4008044E9B7972700009387C7FE44
:10203000E310F4FCC0446DBF118B0DC74C5889C927
:10204000930744046384F5004A85ED36232A04028D
:102050008357C4002322040093F7B7FD2316F4002E
:102060001C481CC08357C40093E787002316F40064
:102070001C4881EF8357C4001307002093F70728FB
:102080006385E700A2854A85FD218317C400139765
:10209000070193F6170041839DC25448232404008E
:1020A000B306D04014CC1448014581E613770708E5
:1020B00031FFB2402244924402494101828093762A
:1020C0002700014691E2504810C4F1BFAA8817E5E5
:1020D000FF0F1305A5FB1C4191EF1387419518C114
:1020E00017E5FF7F130505F2BA8709C51C412324B4
:1020F000F708BA87D8437D487D556346E804638D69
:10210000080203A8870863000804131527004295F6
:1021100010C10323081005463316E6003363C300DD
:10212000232068102320D50889466397D80083268A
:102130004810558E2322C810930617000A07D4C3EF
:10214000BA978CC70145828083D7C500011122CC84
:1021500026CA06CE4AC84EC613F78700AA842E8424
:1021600065E7D8416347E000B8416344E0000145BA
:10217000C1A058546DDF03A904009396370123A032
:10218000040063DE060668488357C400918B99C734
:102190005C401D8D5C5899C33C401D8D5C540C50B7
:1021A0002A86814626858297FD570357C400631D02
:1021B000F5009440F54763E4D708B707402085074A
:1021C000B3D7D700858BA5CF1C48232204001CC0A1
:1021D0009317370163D80700FD576314F5009C403F
:1021E00091E368C84C5823A02401D1D1930744043B
:1021F0006384F50026853D3C232A04028DBF0C50E4
:102200008546014626850297FD57E31FF5F69C405B
:10221000A5DF75476385E70059476395E70023A06D
:102220002401B1B78357C40093E707042316F400D1
:10223000F2406244D2444249B24905618280136748
:1022400007042316E400EDB783A90501E38109F231
:1022500003A905008D8B23A03501330939410147BE
:1022600091E3D84918C4E35420F11C540C50CA8699
:102270004E8626858297634AA0008357C4007D5509
:1022800093E707042316F40065B7AA993309A94018
:10229000D9BF9C49B9CF011122CC06CE2A8411C5E1
:1022A0001C4D81E72EC63122B24597270000938747
:1022B000A7D8639BF5004C408397C50095C722853E
:1022C0006244F240056149B5972700009387C7D85B
:1022D0006394F5000C44CDB7972700009387C7D3CC
:1022E000E39CF5FC4C44C9BFF240624401450561E2
:1022F000828001458280411122C406C62A842316A9
:10230000B5002317C5002320050023220500232440
:1023100005002322050623280500232A0500232C77
:102320000500214681451305C505EFF03F86970757
:1023300000009387E75E5CD09707000093874761B2
:102340001CD497070000938787655CD4970700002B
:1023500093874768B24000D01CD822444101828054
:1023600097050000938525F3A9A2411126C2130603
:1023700080069384F5FFB384C4024AC02E8922C428
:1023800006C693854407EFF09F952A8401CD23204C
:10239000050023222501310508C4138684068145E2
:1023A000EFF0CFFEB240228522449244024941011F
:1023B00082801C4DADE3411122C406C69707000080
:1023C000938747FA1CD523240504232605042328D4
:1023D000050483A7C1802A846314F50085471CCDBA
:1023E00022851D2848C02285052808C422852D2065
:1023F00048C4484001469145FD3D08440546A54571
:10240000DD3D48440946C945FD358547B2401CCCF1
:102410002244410182808280411126C283A4C1806E
:102420009C4C4AC006C622C42A8999E326855137A6
:10243000938484048044DC40FD1763D607009C40ED
:10244000B9CF8440C5BF0317C40039E7C1778507FA
:102450002322040623200400232204002324040052
:102460005CC423280400232A0400232C04002146F2
:1024700081451305C405EFF06FF1232A0402232CD4
:1024800004022324040423260404B24022852244A7
:1024900092440249410182801304840671BF914530
:1024A0004A85E13588C02A8449FDB1472320F900D7
:1024B000E9BF797122D44AD04ECE52CC5AC85EC6FA
:1024C00006D626D256CA2A892E8A13048504814943
:1024D000054BFD5B0444832A4400FD1A63D00A02C5
:1024E00000406DF8B250225492540259624AD24AC6
:1024F000424BB24B4E85F2494561828083D7C4007E
:10250000637BFB008397E40063877701A6854A8598
:10251000029AB3E9A90093848406C1B75971CAD05D
:102520002E898395E500A2D4A6D286D63284B684BD
:1025300063DC05008357C90023A0040093F7070854
:102540008DE39307004005A03000C521E34405FE5C
:102550003247BD67F98F7977BA9793B717009CC058
:10256000CDB793070004B6501CC0265496540659A4
:1025700001456561828083D7C500011122CC06CE5A
:1025800026CA4AC8898B2E8489CF930774041CC03D
:102590001CC885475CC8F2406244D2444249056188
:1025A0008280740030002A89953FA245AA844A851A
:1025B000EFF0EFF201ED8317C40013F7072061FF7E
:1025C000F19B93E727002316F400C1B7970700009B
:1025D000938747D92324F9028357C40008C008C849
:1025E00093E707082316F400A2475CC8B24789CFD7
:1025F0008315E4004A85B92901C98357C400F19BBA
:1026000093E717002316F4000355C400C98C231662
:10261000940051B7828082801C46FD171CC663DA85
:102620000700184E63C5E700A9476394F5006FF0F3
:102630009F8D1C422E851387170018C22380B70078
:102640008280011122CC26CA4AC84EC652C406CE88
:102650002A89AE893284B304D6007D5A631494006B
:10266000014509A8834504004E864A85753705044F
:10267000E31645FFF2406244D2444249B249224A3D
:1026800005618280357122CD26CB4AC94EC706CF5F
:1026900052C556C35AC1DEDEE2DCE6DAAA89AE8450
:1026A0003289368401C51C4D91E321339727000000
:1026B00093878798639BF40C83A4490083D7C40055
:1026C000A18BF5C79C48E5C793070002A304F1025C
:1026D0009307000302D22305F10222C6930B500296
:1026E000972A0000938A4A99054C294B4A848347CC
:1026F000040099C36390770FB30C2441630D240148
:10270000E6864A86A6854E852D3FFD576306F51E53
:102710009257E6973ED283470400638F071CFD570C
:102720001309140002C802CE3ECA02CCA309010458
:1027300082D48345090015465685BD26C247130439
:10274000190059E913F7070109C713070002A30984
:10275000E10413F7870009C71307B002A309E104D6
:10276000834609001307A0026380E608F2474A8403
:10277000814625460347040093051400130707FD0F
:102780006379E60AB5CA3ECE85A8972700009387ED
:10279000A78C6395F40083A489000DB797270000E8
:1027A00093878787E39CF4F083A4C90001BFA685C3
:1027B0004E85EFF05F8109D97D55FA406A44DA44CD
:1027C0004A49BA492A4A9A4A0A4BF65B665CD65C81
:1027D0000D618280050421BF330555413315AC00DE
:1027E000C98F3EC82289B1B73247930647001843C4
:1027F00036C6634907023ACE034704009307E00256
:10280000631FF704034714009307A002631BF7023A
:10281000B2470904138747009C433AC663C10702C5
:102820003ECA35A83307E04093E727003ACE3EC8BA
:10283000E1B7B38767032E848546BA9725BFFD5756
:10284000C5B7050402CA81468147254603470400EF
:1028500093051400130707FD6376E606F1F283453E
:1028600004000D461725000013058581352C11CD78
:10287000972700009387C7801D8D93070004B397A7
:10288000A700424505045D8D2AC88345040019460A
:10289000171500001305057F130914002304B10266
:1028A00021243DC197D7FF7F9387C77595E742479E
:1028B000B2471377071009CF91073EC69257D297B8
:1028C0003ED22DB5B38767032E848546BA97BDBF28
:1028D0009D07E19BA107D5B7780097060000938676
:1028E00086D626860C084E8597000000E70000007B
:1028F000FD572A8AE314F5FC83D7C40093F7070435
:10290000E39C07EA125555BD7800970600009386B0
:1029100086D326860C084E855D2CD9BF411122C472
:102920002E848395E50006C6212B634905007C486B
:10293000AA977CC8B2402244410182808357C400D8
:102940007D777D17F98F2316F400EDB783D7C50087
:10295000011122CC26CA4AC84EC606CE93F70710EC
:10296000AA842E843289B68991C78395E500894669
:10297000014629228357C4007D777D17F98F83157F
:10298000E4002316F4006244F240CE864A86B2493F
:1029900042492685D24405613DA8411122C42E84B6
:1029A0008395E50006C6D928FD570357C400631B6D
:1029B000F500FD77FD17F98F2316F400B24022448D
:1029C000410182808567D98F2316F40068C8FDB75E
:1029D0008395E5003DA0411122C42A842E85B2854D
:1029E000368623A0019E06C6EFD01F86FD576316CC
:1029F000F50083A7019E91C31CC0B240224441014F
:102A00008280411122C42A842E8523A0019E06C6FD
:102A1000EFD00FEFFD576316F50083A7019E91C31A
:102A20001CC0B240224441018280411122C42A8448
:102A30002E85B28523A0019E06C6EFD02FEEFD574E
:102A40006316F50083A7019E91C31CC0B2402244C7
:102A500041018280411122C42A842E8523A0019E37
:102A600006C6EFD0AFEFFD576316F50083A7019EB2
:102A700091C31CC0B240224441018280411122C452
:102A80002A842E85B285368623A0019E06C6EFD005
:102A90002FEEFD576316F50083A7019E91C31CC05E
:102AA000B24022444101828093F5F50F2A966314C7
:102AB000C5000145828083470500E38DB7FE05050B
:102AC000FDB7797152CC9C493A8A984522D426D2D6
:102AD0004ECE56CA06D64AD05AC85EC6AA892E8499
:102AE000B284B68A63D3E700BA879CC00347340434
:102AF00019C385079CC01C4093F7070281C79C40FF
:102B000089079CC00329040013796900631A09002E
:102B1000130B9401FD5B5C449840998F634CF9045E
:102B200083473404B336F0001C4093F70702A5EB4B
:102B300013063404D6854E85029AFD576303F504C7
:102B40001C4011469840998B544481446397C700B8
:102B5000B384E64063D3040081441C4418486354A2
:102B6000F700998FBE94014969047D5B6398240541
:102B7000014509A885465A86D6854E85029A631E68
:102B800075017D55B250225492540259F249624A5D
:102B9000D24A424BB24B456182800509ADBF330733
:102BA000D40013060003A301C7040347540493870A
:102BB0001600A2978906A381E7049DBF8546228659
:102BC000D6854E85029AE30E65FB050945B77971F6
:102BD00022D426D24AD04ECE06D652CC56CA5AC895
:102BE0002E84B6899386350483C5850193078007B3
:102BF000AA84328963ECB7009307200663EDB7001F
:102C00006386051C93078005638BF512930A2404E1
:102C10002301B40415A89387D5F993F7F70F554608
:102C2000E366F6FE171600001306C6488A07B29739
:102C30009C43B29782871C43930A240493864700DF
:102C40009C4314C32301F404854765A21C40084338
:102C500013F60708930545000DC21C410CC363D849
:102C600007001307D002B307F040A301E4041716CE
:102C700000001306A6412947A9A013F607041C412A
:102C80000CC371DEC207C187D9BF10401C43137843
:102C90000608138547006305080008C39C4339A054
:102CA0001376060408C37DDA83D707001307F006FE
:102CB000171600001306863D6384E50E2947A3011D
:102CC00004044C400CC463C5050008406D9908C05D
:102CD00099E3B68A99CDB68AB3F5E702FD1AB295A3
:102CE00083C505002380BA00BE85B3D7E702E3F5AC
:102CF000E5FEA147631EF7001C40858B91CB584031
:102D00001C4863C7E70093070003A38FFAFEFD1A70
:102D1000B386564114C84E87CA867000A2852685A0
:102D20004D337D5A631B450D7D55B250225492544C
:102D30000259F249624AD24A424B45618280A3025B
:102D4000B40417160000130666340C40084313F849
:102D500005081C411105630D080208C313F715008F
:102D600001C793E505020CC04147B1FB0C4093F548
:102D7000F5FD0CC0A9B71C4093E707021CC09307E0
:102D80008007A302F404171600001306663175BF0E
:102D900013F8050408C3E30308FCC207C1837DBF21
:102DA000214731BF10401C434C4813780608138557
:102DB00047006306080008C39C438CC301A808C3EE
:102DC000137606049C4375DA2390B7002328040089
:102DD000B68A91B71C43504081459386470014C37F
:102DE00083AA07005685C93101C53305554148C03E
:102DF0005C401CC8A301040439BF14485686CA8528
:102E000026858299E30245F31C40898B8DE7B24702
:102E10004844E35CF5F03E8509BF85465686CA8581
:102E200026858299E30265F1050A5C443247998F51
:102E3000E345FAFEE9BF014A930A94017D5BF5B7C9
:102E4000411122C42A842E85B285368623A0019E94
:102E500006C6EFD0AFB3FD576316F50083A7019EFA
:0C2E600091C31CC0B2402244410182809A
:102E6C005472617020696E20457863657074696F67
:102E7C006E0D00004D43415553453A203078256C7A
:102E8C00780D0A004D45504320203A203078256CAF
:102E9C00780D0A004D5456414C203A203078256C60
:102EAC00780D0A005472617020696E20496E746549
:102EBC0072727570740D0000464C4153485849505D
:102ECC0000000000464C415348000000494C4D00A6
:102EDC0031303A31313A3030000000004A756C2004
:102EEC00203920323032310048756D6D696E674281
:102EFC006972642053444B204275696C6420546998
:102F0C006D653A2025732C2025730D0A00000000F6
:102F1C00446F776E6C6F6164204D6F64653A202549
:102F2C00730D0A00435055204672657175656E63CA
:102F3C007920256C7520487A0D0A00000D0A2D2D7C
:102F4C002D2D2D2D2D2D2D2D2D2D2D2D2D2D2D2DA5
:102F5C002D2D2D2D2D2D2D2D2D2D2D2D2D2D2D2D95
:102F6C002D2D2D2D2D2D2D2D2D2D2D2D2D2D2D2D85
:102F7C002D2D2D2D2D2D2D2D2D2D2D2D2D2D2D2D75
:102F8C002D2D2D2D2D2D2D2D2D2D2D2D2D2D2D2D65
:102F9C002D2D2D2D2D2D2D2D2D2D2D2D2D2D2D2D55
:102FAC002D2D2D2D2D2D2D2D2D2D2D2D2D2D2D2D45
:102FBC002D2D2D2D2D2D2D2D2D2D2D2D2D2D2D2D35
:102FCC002D2D2D2D2D2D2D2D2D2D2D2D2D2D2D2D25
:102FDC002D2D2D2D2D2D2D2D2D2D2D2D2D2D2D2D15
:102FEC002D2D2D2D0D0A20202020202020202020CA
:102FFC002020202020202020202020202020202EB7
:10300C0051762020202020204542592020202020AD
:10301C00202020202020202020494A202020202051
:10302C0051532020202020202020202069644A2079
:10303C002020202042422E20202020202020202032
:10304C002020202020373A2E20204967550D0A20B9
:10305C002020202020202020202020202020202064
:10306C002020202020202020424220202020202010
:10307C005A512E2020202020202020203A3A2E2089
:10308C002E42423220202E42425A2E2E3A692020C5
:10309C002020202037424A2020202E424242444504
:1030AC004251532020202020202020202E424272EA
:1030BC00202042425A203A42422E20202020202E0C
:1030CC0042515167514242422E37424242424242A1
:1030DC0042510D0A202020202020202020202020BA
:1030EC002020202020202020202037763A3A625AB7
:1030FC006969763A20204942516751424242202068
:10310C0020206742525055593751425153645573E0
:10311C00555051422E202020202072423A2020204F
:10312C0042422E2E2E3A42423A2E3A202020202085
:10313C00202071423A2020204C426A2020455142E6
:10314C00202020202020766969424269695920207C
:10315C0020202020202042420D0A20202020202048
:10316C002020202020202020202020202020204231
:10317C004252514450626742492020585155727650
:10318C003775492020202020374972693A2E674232
:10319C00593A3A3A3A764A3220202020204242428A
:1031AC00424242676942753737624235697651420D
:1031BC003A2020202020204251202020202E427115
:1031CC0020202020202E2E2020202020207251373D
:1031DC00202020202069673A20202042640D0A20FC
:1031EC0020202020202020202020202020202020D3
:1031FC00202020202020202020203A2E202020209B
:10320C003242202020202020202020202076727284
:10321C003A203542372E2E3A3A3A3A3776202E203B
:10322C00202020203A422020203A42753A3A53423C
:10323C00593A3A50422E202020202042426220202F
:10324C0020202042427271424242424220202020E1
:10325C00202042422020202020206742692020721A
:10326C0051370D0A20202020202020202020202033
:10327C002020202020202020202064422E202042AC
:10328C00422020202071422E20202020202020208F
:10329C0050424242454942425A553258584B535378
:1032AC003551424269202020202E42534520204295
:1032BC006A693A35427569693542202020202042DE
:1032CC00424258204242424251425A49373A202007
:1032DC0020202020202E42425151424242202042A6
:1032EC004220202055420D0A202020202020202082
:1032FC002020202020202020202020202020374289
:10330C004C2037423A2055424242424242424242CB
:10331C002020202020202020203A42423A3A69697D
:10332C00693A3A69692020202020202E6A424242C4
:10333C004B727259736A7576374C31737331752EC3
:10334C00202042423A42642035762E2059422020D9
:10335C0020202020202020204A4242422E202042A1
:10336C0042202051425142514242514D590D0A20A6
:10337C002020202020202020202020202020202041
:10338C0020202020202E4251204242202072423701
:10339C0020202020205142202020202020203A5183
:1033AC0042713A3759594A59733771424A20202091
:1033BC00206942425A422E2037524A697272727206
:1033CC0072726969354272202069202042442020A3
:1033DC00202020204242202020202020202020724B
:1033EC0072204220202052422020202E2E2E2E20D1
:1033FC002037424A0D0A2020202020202020202087
:10340C0020202020202020202020202020722E2050
:10341C00422E202072423A2020202020424220209E
:10342C0020202E4442427342503A7272727272726F
:10343C003A4C4237202020202020202E423A2020B7
:10344C002059504C4A4A754A6A59642E2020202033
:10345C0020202042522020202020203542372020BE
:10346C0020202020202020202E42372020424220C5
:10347C003A2E202020202E202E42690D0A202020BA
:10348C002020202020202020202020202020202030
:10349C00202020202020674273587269427220201D
:1034AC0020202042422020202020517620204250F3
:1034BC00697237377637376975427620202020209D
:1034CC0020203A4269202020424269697269723A8E
:1034DC003742582020202020202042672020202006
:1034EC002020204242692020204C20202020202E09
:1034FC0042424251424220424242424242422072A5
:10350C00422E0D0A202020202020202020202020A8
:10351C0020202020202020202E42424242424242A3
:10352C00512E7242424242424242424220202020CC
:10353C002020202020425A6937377637373772756A
:10354C00427620202020202E204C42722020204227
:10355C00427237374C37727642312020202020209F
:10356C002E42512020202020202020514251206426
:10357C0042512020202069423A2020375A20202016
:10358C002020202020204251200D0A202020202005
:10359C00202020202020202020202020202020201F
:1035AC00373A20202020202020674276202020201F
:1035BC0020514220202020202020202E424235580D
:1035CC00714B504B4B494D42582020202020374204
:1035DC0042512E20202042423155534953755042BE
:1035EC006220202020202069424220202020202000
:1035FC0020202037424242422E20202020205020E2
:10360C00202020202020202020204A514242440DFE
:10361C000A202020202020202020202020202020B4
:10362C002020202020202020202020202020203A74
:10363C00692020202020202E2E2020202020202019
:10364C00202072202020202020202020203A2E20F4
:10365C0020202020202E2020202020203A692020ED
:10366C0020202020203A2E2020202020202E537293
:10367C0020202020202020202020202E69202020E7
:10368C00202020202020202020202020202020202E
:10369C002049720D0A2D2D2D2D2D2D2D2D2D2D2D3D
:1036AC002D2D2D2D2D2D2D2D2D2D2D2D2D2D2D2D3E
:1036BC002D2D2D2D2D2D2D2D2D2D2D2D2D2D2D2D2E
:1036CC002D2D2D2D2D2D2D2D2D2D2D2D2D2D2D2D1E
:1036DC002D2D2D2D2D2D2D2D2D2D2D2D2D2D2D2D0E
:1036EC002D2D2D2D2D2D2D2D2D2D2D2D2D2D2D2DFE
:1036FC002D2D2D2D2D2D2D2D2D2D2D2D2D2D2D2DEE
:10370C002D2D2D2D2D2D2D2D2D2D2D2D2D2D2D2DDD
:10371C002D2D2D2D2D2D2D2D2D2D2D2D2D2D2D2DCD
:10372C002D2D2D2D2D2D2D2D2D2D2D2D2D2D2D2DBD
:10373C002D2D2D2D2D2D2D2D2D2D2D0D0A20202017
:10374C00202020202020202020202020202020206D
:10375C00202020202020202020202020202020205D
:10376C00202020202020202020202020202020204D
:10377C00202020202020202020202020202020203D
:10378C00202020202020202020202020202020202D
:10379C00202020202020202020202020202020201D
:1037AC00202020202020202020202020202020200D
:1037BC0020202020202020202020202020202020FD
:1037CC0020202020202020202020202020202020ED
:1037DC002020200D0A202020202020202020202006
:1037EC0020202020202020202020202020202020CD
:1037FC0020202020202020202020202020202020BD
:10380C0020202020202020202020202020202020AC
:10381C00202020202020202020202020202020209C
:10382C00202020202020202020202020202020208C
:10383C00202020202020202020202020202020207C
:10384C00202020202020202020202020202020206C
:10385C002020202020200D002A2A2A2A2A2A2A2A3F
:10386C002A2A2A2A2A2A2A2A2A2A2A2A2A2A436F4E
:10387C006E76324420746573742A2A2A2A2A2A2ADC
:10388C002A2A2A2A2A2A2A2A2A2A2A2A2A2A2A0DA9
:10389C000000000069666D61703A0D0025346420EB
:1038AC00000000000D0000002A2A2A2A2A2A2A2AAF
:1038BC002A2A2A2A2A2A2A2A2A2A2A2A2A2A2A2A5C
:1038CC0026206368616E6E656C20312066696C74AD
:1038DC00657220262A2A2A2A2A2A2A2A2A2A2A2AC7
:1038EC002A2A2A2A2A2A2A2A2A2A2A2A2A2A2A2A2C
:1038FC000D0000002A2A2A2A2A2A2A2A2A2A2A2AB7
:10390C002A2A2A2A2A2A2A2A2A2A2A2A26206368A2
:10391C00616E6E656C20322066696C74657220264F
:10392C002A2A2A2A2A2A2A2A2A2A2A2A2A2A2A2AEB
:10393C002A2A2A2A2A2A2A2A2A2A2A2A0D00000076
:10394C002A2A2A2A2A2A2A2A2A2A2A2A2A2A2A2ACB
:10395C002A2A2A2A2A2A2A2A26206368616E6E6558
:10396C006C20332066696C74657220262A2A2A2AF8
:10397C002A2A2A2A2A2A2A2A2A2A2A2A2A2A2A2A9B
:10398C002A2A2A2A2A2A2A2A0D0000002A2A2A2A26
:10399C002A2A2A2A2A2A2A2A2A2A2A2A2A2A2A2A7B
:1039AC002A2A2A2A26206368616E6E656C203420D0
:1039BC0066696C74657220262A2A2A2A2A2A2A2ADF
:1039CC002A2A2A2A2A2A2A2A2A2A2A2A2A2A2A2A4B
:1039DC002A2A2A2A0D0000002A2A2A2A2A2A2A2AD6
:1039EC002A2A2A2A2A2A2A2A2A2A2A2A2A2A2A2A2B
:1039FC0026206368616E6E656C20352066696C7478
:103A0C00657220262A2A2A2A2A2A2A2A2A2A2A2A95
:103A1C002A2A2A2A2A2A2A2A2A2A2A2A2A2A2A2AFA
:103A2C000D0000002A2A2A2A2A2A2A2A2A2A2A2A85
:103A3C002A2A2A2A2A2A2A2A2A2A2A2A2620636871
:103A4C00616E6E656C20362066696C74657220261A
:103A5C002A2A2A2A2A2A2A2A2A2A2A2A2A2A2A2ABA
:103A6C002A2A2A2A2A2A2A2A2A2A2A2A0D00000045
:103A7C002A2A2A2A2A2A2A2A2A2A2A2A2A2A2A2A9A
:103A8C002A2A2A2A2A2A2A2A26206368616E6E6527
:103A9C006C20372066696C74657220262A2A2A2AC3
:103AAC002A2A2A2A2A2A2A2A2A2A2A2A2A2A2A2A6A
:103ABC002A2A2A2A2A2A2A2A0D0000002A2A2A2AF5
:103ACC002A2A2A2A2A2A2A2A2A2A2A2A2A2A2A2A4A
:103ADC002A2A2A2A26206368616E6E656C2038209B
:103AEC0066696C74657220262A2A2A2A2A2A2A2AAE
:103AFC002A2A2A2A2A2A2A2A2A2A2A2A2A2A2A2A1A
:103B0C002A2A2A2A0D0000002A2A2A2A2A2A2A2AA4
:103B1C002A2A2A2A2A2A2A2A2A2A2A2A2A2A2A2AF9
:103B2C006368616E6E656C206F75747075742A2A8B
:103B3C002A2A2A2A2A2A2A2A2A2A2A2A2A2A2A2AD9
:103B4C002A2A2A2A2A2A2A2A2A2A0D0A0D000000A1
:103B5C002A2A2A2A2A2A2A2A2A2A2A2A2A2A2A2AB9
:103B6C002A2A2A2A2A2A2A2A6368616E6E656C2000
:103B7C0031206F75747075742A2A2A2A2A2A2A2AE7
:103B8C002A2A2A2A2A2A2A2A2A2A2A2A2A2A2A2A89
:103B9C002A2A2A2A0D0000002A2A2A2A2A2A2A2A14
:103BAC002A2A2A2A2A2A2A2A2A2A2A2A2A2A2A2A69
:103BBC006368616E6E656C2032206F7574707574FD
:103BCC002A2A2A2A2A2A2A2A2A2A2A2A2A2A2A2A49
:103BDC002A2A2A2A2A2A2A2A2A2A2A2A0D000000D4
:103BEC002A2A2A2A2A2A2A2A2A2A2A2A2A2A2A2A29
:103BFC002A2A2A2A2A2A2A2A6368616E6E656C2070
:103C0C0033206F75747075742A2A2A2A2A2A2A2A54
:103C1C002A2A2A2A2A2A2A2A2A2A2A2A2A2A2A2AF8
:103C2C002A2A2A2A0D0000002A2A2A2A2A2A2A2A83
:103C3C002A2A2A2A2A2A2A2A2A2A2A2A2A2A2A2AD8
:103C4C006368616E6E656C2034206F75747075746A
:103C5C002A2A2A2A2A2A2A2A2A2A2A2A2A2A2A2AB8
:103C6C002A2A2A2A2A2A2A2A2A2A2A2A0D00000043
:103C7C002A2A2A2A2A2A2A2A2A2A2A2A2A2A2A2A98
:103C8C002A2A2A2A2A2A2A2A6368616E6E656C20DF
:103C9C0035206F75747075742A2A2A2A2A2A2A2AC2
:103CAC002A2A2A2A2A2A2A2A2A2A2A2A2A2A2A2A68
:103CBC002A2A2A2A0D0000002A2A2A2A2A2A2A2AF3
:103CCC002A2A2A2A2A2A2A2A2A2A2A2A2A2A2A2A48
:103CDC006368616E6E656C2036206F7574707574D8
:103CEC002A2A2A2A2A2A2A2A2A2A2A2A2A2A2A2A28
:103CFC002A2A2A2A2A2A2A2A2A2A2A2A0D000000B3
:103D0C002A2A2A2A2A2A2A2A2A2A2A2A2A2A2A2A07
:103D1C002A2A2A2A2A2A2A2A6368616E6E656C204E
:103D2C0037206F75747075742A2A2A2A2A2A2A2A2F
:103D3C002A2A2A2A2A2A2A2A2A2A2A2A2A2A2A2AD7
:103D4C002A2A2A2A0D0000002A2A2A2A2A2A2A2A62
:103D5C002A2A2A2A2A2A2A2A2A2A2A2A2A2A2A2AB7
:103D6C006368616E6E656C2038206F757470757445
:103D7C002A2A2A2A2A2A2A2A2A2A2A2A2A2A2A2A97
:103D8C002A2A2A2A2A2A2A2A2A2A2A2A0D00000022
:103D9C002A2A2A2A2A2A2A2A2A2A2A2A2A2A2A2A77
:103DAC002A2A2A2A436F6E76324420746573742053
:103DBC00656E642A2A2A2A2A2A2A2A2A2A2A2A2A9E
:103DCC002A2A2A2A2A2A2A0D0A0D00002A2A2A2AF5
:103DDC002A2A2A2A2A2A2A2A2A2A2A2A2A2A2A2A37
:103DEC002A2A44445220525720746573742A2A2A72
:103DFC002A2A2A2A2A2A2A2A2A2A2A2A2A2A2A2A17
:103E0C002A2A2A0D0000000062617463682073691D
:103E1C007A653A20314D422E0D0A0D0062617463B1
:103E2C00682025642073746172742E0D0A000000E2
:103E3C002121212121212121646472207277207497
:103E4C00657374206661696C642120746F74616C95
:103E5C00206661696C656420636F756E743A2564C5
:103E6C002021212121212121210D0A0069647820A2
:103E7C00256420617420616464722025642C207791
:103E8C00725F76616C7565203D2025642C20726410
:103E9C005F76616C7565203D2025642E0D0A00004F
:103EAC00626174636820256420656E642E20746FD3
:103EBC0074616C206572726F72206E756D626572C2
:103ECC003A2025642E0D0A0D0A0000002A2A2A2AFF
:103EDC002A2A2A2A2A2A2A2A2A2A2A2A2A2A2A2A36
:103EEC00444452205257207465737420656E642AC2
:103EFC002A2A2A2A2A2A2A2A2A2A2A2A2A2A2A2A16
:103F0C002A2A2A0D00000000000102020303030309
:103F1C00040404040404040405050505050505054D
:103F2C00050505050505050506060606060606062D
:103F3C000606060606060606060606060606060615
:103F4C0006060606060606060707070707070707FD
:103F5C0007070707070707070707070707070707E5
:103F6C0007070707070707070707070707070707D5
:103F7C0007070707070707070707070707070707C5
:103F8C0007070707070707070808080808080808AD
:103F9C000808080808080808080808080808080895
:103FAC000808080808080808080808080808080885
:103FBC000808080808080808080808080808080875
:103FCC000808080808080808080808080808080865
:103FDC000808080808080808080808080808080855
:103FEC000808080808080808080808080808080845
:103FFC000808080808080808080808080808080835
:10400C000808080808080808000000000000000064
:10401C000000000000000000000000000000000094
:10402C000000000000000000000000000000000084
:10403C000000000000000000000000000000000074
:10404C000000000000000000000000000000000064
:10405C000000000000000000000000000000000054
:10406C000000000000000000232D302B2000000079
:10407C00686C4C006566674546470000303132334A
:10408C003435363738394142434445460000000048
:10409C0030313233343536373839616263646566B2
:1040AC000000000086EBFFFF9CEBFFFF5CEBFFFFCB
:1040BC005CEBFFFF5CEBFFFF5CEBFFFF9CEBFFFFA0
:1040CC005CEBFFFF5CEBFFFF5CEBFFFF5CEBFFFFD0
:1040DC00F4ECFFFFDAEBFFFFC6ECFFFF5CEBFFFF3E
:1040EC005CEBFFFF24EDFFFF5CEBFFFFDAEBFFFF68
:0C40FC005CEBFFFF5CEBFFFFCEECFFFF76
:1041080000000000344000805440008014400080CB
:104118000000000000000000000000000000000097
:104128000000000000000000000000000000000087
:104138000000000000000000000000000000000077
:104148000000000000000000000000000000000067
:104158000000000000000000000000000000000057
:104168004802009000B4C4040000009000000090D1
:040000058000000077
:00000001FF
